:020000020000FC
:101100004173624D6B390040D5FF7F390000803F4D
:101110000000803F000020400101FFFF0C80010122
:10112000010101010800323135304D01020421CCAA
:10113000000001053140000A3C402E023D401006EF
:10114000B012F2903C4000023D4006113E402E009D
:10115000B0126491B0121638B0126C910A120B12D0
:101160002182B240CE074A07D2422D023A08083CFB
:101170001F424A07FF43000092534A07F2533A08BE
:10118000C2933A08F523B24008084E0792534E071F
:101190001F424E07CF9300000434F24080003B080A
:1011A000023CC2433B08B2534E071F424E07CF9347
:1011B00000002834D2433608B25006004E071F42C2
:1011C0004A07FF4086000000F24005003A08C2933B
:1011D0003A08212492534A075F423A084F4F3FE3AF
:1011E0001F531B424A07DB4F2D020000F2900500FF
:1011F0003A0805201F424A07DFD23B080000F2539D
:101200003A08E53FC2433608A2534E071F424A0739
:10121000FF400600000092534A07C29336080A2096
:101220005E4235085ED23B081F424A07CF4E00009F
:1012300092534A071F424E071B424A07EB4F0000DA
:1012400092534A071F424E076E4F4E83C2245E835D
:1012500021255E8339255E834F257E800300A125ED
:101260007E800500F4255E830220304010175E83E7
:101270000220304058175E83022030409C175E8366
:101280000220304012185E8302203040B6185E8380
:1012900002203040FE185E830220304098195E83A1
:1012A00002203040321A7E800F0002203040CC1ADB
:1012B0005E8302203040DE1B7E800300022030402F
:1012C0009A1E6E8302203040D41E5E83022030407E
:1012D00016205E830220304030205E8302203040A2
:1012E0004E205E8302203040FA205E830220304090
:1012F000F4215E8302203040FE225E8302203040D3
:1013000088245E83022030402C255E8302203040FA
:10131000EA257E800A000220304092267E80450029
:101320000220304046275E830220304070275E83D3
:101330000220304028285E830220304052285E83FD
:1013400002203040F6285E83022030404A2B7E8007
:10135000030002203040222D5E8302203040162EF2
:101360005E8302203040402E6E8302203040E42E07
:101370007E800300022030402A2F7E80050002205C
:101380003040BC307E805D000220304004316E82EF
:1013900002203040AE315E830220304026325E8330
:1013A000022030400A335E83022030405A335E838D
:1013B0000220304012345E830220304088355E8344
:1013C0000220304058365E83022030402C373040B7
:1013D00082371F424A07FF400E000000B250030050
:1013E0004A071F424A07FF40FE00000092534A0787
:1013F0001F424A07FF402100000092534A071F4244
:101400004A07FF40CC00000092534A071F424A0798
:10141000DF422D02000092534A071F424A07FF4055
:101420000500000092534A071F424A07FF4005008B
:10143000000092534A071F424A07FF406500000020
:1014400092534A071F424A07FF4018000000925378
:101450004A071F424A07DF43000092534A071F42D0
:101460004A07DF422A02000092534A071F424A07F6
:10147000DF422B02000092534A071F424A07DF4215
:101480002C02000092534A07C2433708B0121E884C
:101490003040B4371F424A07FF4007000000B250F7
:1014A00003004A071F424A07DF4216020000925318
:1014B0004A07B240AA065407B0122C8CC243370820
:1014C000B0121E883040B4371F424A07FF400A005E
:1014D0000000B25003004A07B2403E025407B01267
:1014E0002C8CB24042025407B0122C8CC2433708F5
:1014F000B0121E883040B4371F424A07FF401A001E
:101500000000B25003004A07B2403E025407B01236
:101510002C8C1F424A07DF421602000092534A07F2
:10152000B240AA065407B0122C8C1F424A07FF4053
:101530002400000092534A07824346028243480235
:10154000C2933D080424B24036025407033CB24023
:1015500046025407B0122C8C1F424A07FF40250058
:10156000000092534A07C2933D080424B2403A0750
:101570005407033CB24046025407B0122C8C1F4261
:101580004A07FF402000000092534A07B24032024F
:101590005407B0122C8CC2433708B0121E8830405A
:1015A000B437D293390845201F424A07FF40030051
:1015B0000000B25003004A07A2534E071F424E07D5
:1015C0001B424A07EB4F000092534A07C293280080
:1015D0002A34C293800727201F424E07FF90100035
:1015E00000001C2C1F424E07E24F3508D2439307E0
:1015F000B0123C70C29335080A24C24318028243D9
:101600003E07B24080404007B0129A83023CD2436A
:101610001802C2433708B0121E88173CE24337084D
:10162000B0121E88123CF24007003708B0121E8824
:101630000C3C1F424A07EF430000B25003004A0728
:10164000F24005003708B0121E883040B4371F4200
:101650004A07FF400E000000B25003004A071F4235
:101660004A07FF40FE00000092534A071F424A0704
:10167000FF402100000092534A071F424A07FF40E3
:10168000CC00000092534A071F424A07DF422D0256
:10169000000092534A071F424A07FF40050000001E
:1016A00092534A071F424A07FF4005000000925329
:1016B0004A071F424A07FF406500000092534A074D
:1016C0001F424A07FF401800000092534A071F427A
:1016D0004A07DF43000092534A071F424A07DF428E
:1016E0002A02000092534A071F424A07DF422B0298
:1016F000000092534A071F424A07DF422C020000B3
:1017000092534A07C2433708B0121E883040B4379C
:101710001F424A07FF401A000000B25003004A0768
:10172000C2433A08B24000F454070C3C1F4254072D
:101730001B424A07EB4F0000D2533A0892534A0724
:1017400092535407F29018003A08F02BC24337081E
:10175000B0121E883040B4371F424A07FF401700BE
:101760000000B25003004A07B24000F654070C3C98
:101770001F4254071B424A07EB4F0000D2533A085E
:1017800092534A0792535407F29015003A08F02BEF
:10179000C2433708B0121E883040B4371F424A0790
:1017A000FF4012000000B25003004A07C2433A084B
:1017B000B24000F254070C3C1F4254071B424A0738
:1017C000EB4F0000D2533A0892534A079253540702
:1017D000F29003003A08F02BB24000F854071F4281
:1017E00054071B424A07EB4F000092534A0792539B
:1017F0005407B0122C8CA2525407B0122C8CA25257
:101800005407B0122C8CC2433708B0121E883040E7
:10181000B4371F424A07FF4013000000B2500300D4
:101820004A071F424A07CF43000092534A071F420C
:101830004A07DF426407000092534A071F424A07E3
:10184000DF421602000092534A071C4206021D4264
:101850000802B012047F824C5007824D5207B240FA
:1018600050075407B0122C8C1C428E061D42900665
:10187000B012047F824C5007824D5207B24050078D
:101880005407B0122C8CB2400E025407B0122C8CAC
:101890001F424A07CF43000092534A071F424A079C
:1018A000FF40FB00000092534A07C2433708B012C2
:1018B0001E883040B4371F424A07FF400500000031
:1018C000B25003004A07C2433A08B24000FA540734
:1018D0000C3C1F4254071B424A07EB4F0000D253F7
:1018E0003A0892534A0792535407F29003003A0879
:1018F000F02BC2433708B0121E883040B437F29044
:10190000180039083B20C29328002B34C29380076B
:1019100028201F424A07FF401A000000B25003006F
:101920004A071C424E072C53B0120E8AC2433A0893
:10193000B24000F454070C3C1F4254071B424A07B4
:10194000EB4F0000D2533A0892534A079253540780
:10195000F29018003A08F02BC2433708B0121E88E4
:10196000193C1F424A07EF430000B25003004A07E8
:10197000F24007003708B0121E880C3C1F424A078D
:10198000EF430000B25003004A07F2400500370859
:10199000B0121E883040B437F290150039083B2051
:1019A000C29328002B34C293800728201F424A0785
:1019B000FF4017000000B25003004A071C424E07C8
:1019C0002C53B012848AC2433A08B24000F654073E
:1019D0000C3C1F4254071B424A07EB4F0000D253F6
:1019E0003A0892534A0792535407F29015003A0866
:1019F000F02BC2433708B0121E88193C1F424A0719
:101A0000EF430000B25003004A07F24007003708D6
:101A1000B0121E880C3C1F424A07EF430000B25030
:101A200003004A07F24005003708B0121E88304014
:101A3000B437F290030039083B20C29328002B34BE
:101A4000C293800728201F424A07FF40050000007C
:101A5000B25003004A071C424E072C53B01298891B
:101A6000C2433A08B24000FA54070C3C1F425407E4
:101A70001B424A07EB4F0000D2533A0892534A07E1
:101A800092535407F29003003A08F02BC2433708F0
:101A9000B0121E88193C1F424A07EF430000B250A3
:101AA00003004A07F24007003708B0121E880C3CBA
:101AB0001F424A07EF430000B25003004A07F240BA
:101AC00005003708B0121E883040B437E29239085A
:101AD0007820C29328006834C293800765201F4293
:101AE0004A07FF4006000000B25003004A07B24018
:101AF00053075407A2534E07C2433A080C3C1F42F7
:101B00004E071B425407EB4F0000D2533A08925342
:101B10004E07B2535407E2923A08F12B3E40CDCC27
:101B20003F404C3D1C4250071D425207B0124091AD
:101B30000C932F241E433F40A0411C4250071D42DE
:101B40005207B0124A910C932424924250070E027D
:101B50009242520710023E4009F93F40A03D1C420C
:101B60000E021D421002B012A27B0A4C0B4D0C4A11
:101B70000D4BB01234915C53C24C9007D2431C02FF
:101B8000D2439307B0123C70C2433708B0121E888C
:101B9000053CF24003003708B0121E88B2405007DF
:101BA0005407B0122C8C193C1F424A07EF43000027
:101BB000B25003004A07F24007003708B0121E88EF
:101BC0000C3C1F424A07EF430000B25003004A0793
:101BD000F24005003708B0121E883040B437F2904A
:101BE000090039084C21C29328003C35C293800774
:101BF00039211F424A07FF400B000000B25003008A
:101C00004A07A2534E071F424E07FF900C000000E8
:101C10002F241F424E07FF90ED00000029241F4291
:101C20004E07FF900500000023241F424E07FF903F
:101C3000EF0000001D241F424E07FF900A00000025
:101C400017241F424E07FF90B000000011241F42CE
:101C50004E07FF90070000000B241F424E07FF9025
:101C60000B00000005241F424E07FF920000D72002
:101C70001F424E07E14F000092534E07C2433A08FD
:101C8000B240950654070C3C1F424E071B425407B6
:101C9000EB4F0000D2533A0892534E07B253540709
:101CA000E2923A08F12B6E411C4292061D429406C4
:101CB000B012C874824C9206824D94061E433F4077
:101CC000803F1C4292061D429406B0124A910C932A
:101CD000A0243E406F123F4083BA1C429E061D4224
:101CE000A006B012DC770A4C0B4D0E4A0F4B1C427B
:101CF00092061D429406B01240910C938424C24374
:101D00003A08B240990654070C3C1F424E071B424A
:101D10005407EB4F0000D2533A0892534E07B25388
:101D20005407E2923A08F12B6E411C4296061D427E
:101D30009806B012C874824C9606824D98061E43CF
:101D40003F40803F1C4296061D429806B0124A91C1
:101D50000C9353243E406F123F4083BA1C429E06B0
:101D60001D42A006B012DC770A4C0B4D0E4A0F4BF9
:101D70001C4296061D429806B01240910C933724DF
:101D80003E406F123F4083BA1C429A061D429C0699
:101D9000B012DC770A4C0B4D1E4296061F42980685
:101DA0001C4292061D429406B012D8770E4A0F4B81
:101DB000B01240910C931524924292060602924270
:101DC00094060802924296068E0692429806900663
:101DD000D2439307B0123C70C2433708B0121E883A
:101DE000233CF2400E003708B0121E881D3CF24022
:101DF0000A003708B0121E88173CF2400900370865
:101E0000B0121E88113CF2400C003708B0121E8838
:101E10000B3CF2400B003708B0121E88053CF24024
:101E200012003708B0121E88B24008084E07C2934D
:101E300036080324B2524E07023CA2524E07C24358
:101E40003A08F29009003A08262C1F424E071B421E
:101E50004A07EB4F0000D2533A0892534E07925371
:101E60004A07EF3F1F424A07EF430000B25003000A
:101E70004A07F24007003708B0121E880C3C1F4288
:101E80004A07EF430000B25003004A07F240050042
:101E90003708B0121E883040B4371F424A07EF435C
:101EA0000000B25003004A07C29328000C34C293CA
:101EB00080070920C2439307B0123C70C243370821
:101EC000B0121E88053CF24007003708B0121E8889
:101ED0003040B437E29239089020C2932800803411
:101EE000C29380077D201F424A07FF400600000082
:101EF000B25003004A07A2534E07C2433A08B24009
:101F0000530754070C3C1F424E071B425407EB4F2C
:101F10000000D2533A0892534E07B2535407E2924C
:101F20003A08F12BC29335080624F2400B0037081B
:101F3000B0121E884F3C0E433F4060401C42500789
:101F40001D425207B0124A910C9310240E433F4099
:101F500080001C4250071D425207B01240910C9362
:101F60000524E2423708B0121E88343C1E433F402D
:101F7000B8411C4250071D425207B01240910C93C9
:101F80000624F24003003708B0121E88233C0E439B
:101F90000F431C4250071D425207B0121C910C9374
:101FA0000B24D243180292423E023E079242400264
:101FB0004007B0129A830A3CC2431802924250076B
:101FC0003E07924252074007B0129A83C243370835
:101FD000B0121E88B2403E075407B0122C8C193C38
:101FE0001F424A07EF430000B25003004A07F24085
:101FF00007003708B0121E880C3C1F424A07EF4307
:102000000000B25003004A07F24005003708B01242
:102010001E883040B4371F424A07EF430000B250D9
:1020200003004A07C2433708B0121E883040B43755
:102030001F424A07EF430000B25003004A07D24351
:102040003C08C2433708B0121E883040B437C293F0
:1020500028004C34C293800749201F424A07EF43AF
:102060000000B25003004A07C29328004434C293D0
:10207000800741201E423A021F423C021C42A60633
:102080001D42A806B012DC770A4C0B4D4E430C4A99
:102090000D4BB012A088C24C3A08C2933A081720E0
:1020A0001E423A021F423C021C42A6061D42A806DE
:1020B000B012DC77824CA606824DA806D243930765
:1020C000B0123C70C2433708B0121E88143CD29341
:1020D0003A080620F24009003708B0121E880B3C6F
:1020E000F2400A003708B0121E88053CF240070093
:1020F0003708B0121E883040B437D29339086C20AC
:10210000C29328005C34C293800759201F424A07BB
:10211000FF4003000000B25003004A07A2534E07DD
:102120001F424E07FF900C0000002F241F424E0755
:10213000FF90ED00000029241F424E07FF9005008C
:10214000000023241F424E07FF90EF0000001D24D3
:102150001F424E07FF900A00000017241F424E073F
:10216000FF90B000000011241F424E07FF900700AF
:1021700000000B241F424E07FF900B0000000524B7
:102180001F424E07FF9200000D201F424E07E24FF4
:102190001602D2439307B0123C70C2433708B01204
:1021A0001E88043CE2433708B0121E881F424E07C7
:1021B0001B424A07EB4F000092534A07193C1F424B
:1021C0004A07EF430000B25003004A07F2400700FD
:1021D0003708B0121E880C3C1F424A07EF4300002C
:1021E000B25003004A07F24005003708B0121E88BB
:1021F0003040B437E29239087420C2932800643426
:10220000C293800761201F424A07FF40060000007A
:10221000B25003004A07A2534E07C2433A08B240E5
:10222000530754070C3C1F424E071B425407EB4F09
:102230000000D2533A0892534E07B2535407E29229
:102240003A08F12BC29335080624F2400B003708F8
:10225000B0121E88333C0E433F4060401C42500782
:102260001D425207B0124A910C930524E2423708EE
:10227000B0121E88233C1E433F4090401C42500732
:102280001D425207B01240910C930624F240030005
:102290003708B0121E88123C924250075A029242EE
:1022A00052075C02924250073E0792425207400793
:1022B000B0129A83C2433708B0121E88B2403E075C
:1022C0005407B0122C8C193C1F424A07EF43000000
:1022D000B25003004A07F24007003708B0121E88C8
:1022E0000C3C1F424A07EF430000B25003004A076C
:1022F000F24005003708B0121E883040B437E29231
:102300003908B420C2932800A434C2938007A120C6
:102310001F424A07FF4006000000B25003004A0770
:10232000A2534E07C2433A08B240530754070C3C2D
:102330001F424E071B425407EB4F0000D2533A088E
:1023400092534E07B2535407E2923A08F12BC293CC
:1023500035080624F2400B003708B0121E88733C83
:102360000E433F409C411C4250071D425207B01291
:102370004A910C930524E2423708B0121E88633C50
:102380001E433F40A4411C4250071D425207B01259
:1023900040910C930624F24003003708B0121E88C7
:1023A000523C924250075E029242520760021E4225
:1023B00002021F4204020C433D408041B012A27B46
:1023C0000A4C0B4D0C4A0D4BB012988FB0128C87F3
:1023D0000A4C0B4D1E425A021F425C021C425E0216
:1023E0001D426002B012D8770E4A0F4BB012A27B8A
:1023F000824C0202824D04021E425A021F425C02BB
:102400000C433D408040B012D8770A4C0B4D1E4221
:1024100002021F4204020C4A0D4BB012A27BB01202
:10242000988F825C0002D2439307B0123C709242B4
:1024300050073E07924252074007B0129A83C243A8
:102440003708B0121E88B2403E075407B0122C8CD9
:10245000193C1F424A07EF430000B25003004A07ED
:10246000F24007003708B0121E880C3C1F424A0792
:10247000EF430000B25003004A07F240050037085E
:10248000B0121E883040B437D29339084120C2932D
:1024900028003134C29380072E201F424A07FF4094
:1024A00003000000B25003004A07A2534E071F4228
:1024B0004E07CF93000005241F424E07DF93000014
:1024C0000D201F424E07E24F6407D2439307B0121C
:1024D0003C70C2433708B0121E88043CE243370800
:1024E000B0121E881F424E071B424A07EB4F0000E6
:1024F00092534A07193C1F424A07EF430000B2506B
:1025000003004A07F24007003708B0121E880C3C4F
:102510001F424A07EF430000B25003004A07F2404F
:1025200005003708B0121E883040B4371F424A07F2
:10253000FF401B000000B25003004A071F424A0739
:10254000DF43000092534A07C2433A08083C1F4247
:102550004A07CF430000D2533A0892534A07F290F9
:1025600005003A08F42B1F424A07CF43000092535C
:102570004A07C2433A081F424A07CF43000092531A
:102580004A071F424A07CF43000092534A07083CBC
:102590001F424A07CF430000D2533A0892534A07DA
:1025A000E2933A08F52B1F424A07CF4300009253AB
:1025B0004A07C2433A08083C1F424A07CF4300007B
:1025C000D2533A0892534A07F2900C003A08F42B7F
:1025D0001F424A07DF428307000092534A07C24363
:1025E0003708B0121E883040B437F2900300390823
:1025F0004220C29328003234C29380072F201F420A
:102600004A07FF4005000000B25003004A07A253EA
:102610004E071C424E07B012688BC2433708B012F7
:102620001E881F424E071B424A07EB4F0000925381
:102630004A0792534E071F424E071B424A07EB4F71
:10264000000092534A0792534E071F424E071B4207
:102650004A07EB4F000092534A07193C1F424A07B2
:10266000EF430000B25003004A07F240070037086A
:10267000B0121E880C3C1F424A07EF430000B250C4
:1026800003004A07F24005003708B0121E883040A8
:10269000B437D29339084920C29328003934C29301
:1026A000800736201F424A07FF4003000000B25057
:1026B00003004A07A2534E071F424E076E4F7E800B
:1026C00005007E9010000D2C1F424E07E24F2D0298
:1026D000D2439307B0123C70C2433708B0121E8831
:1026E0000E3C1F424E07FF90150000000428F240E8
:1026F00003003708023CE2423708B0121E881F422E
:102700004E071B424A07EB4F000092534A07193C01
:102710001F424A07EF430000B25003004A07F2404D
:1027200007003708B0121E880C3C1F424A07EF43CF
:102730000000B25003004A07F24005003708B0120B
:102740001E883040B4371F424A07FF400300000094
:10275000B25003004A071F424A07DF426E070000DB
:1027600092534A07C2433708B0121E883040B4372C
:10277000D29339084B20C29328003B34C293800780
:1027800038201F424A07FF4003000000B2500300F8
:102790004A07A2534E07C29335080624F2400B00A5
:1027A0003708B0121E881C3C1F424E07CF93000012
:1027B00005241F424E07DF9300000D201F424E07E5
:1027C000E24F6E07D2439307B0123C70C243370802
:1027D000B0121E88053CF2400C003708B0121E886B
:1027E0001F424E071B424A07EB4F000092534A0715
:1027F000193C1F424A07EF430000B25003004A074A
:10280000F24007003708B0121E880C3C1F424A07EE
:10281000EF430000B25003004A07F24005003708BA
:10282000B0121E883040B4371F424A07FF400300F1
:102830000000B25003004A071F424A07DF42190254
:10284000000092534A07C2433708B0121E88304036
:10285000B437D29339084120C29328003134C2934F
:1028600080072E201F424A07FF4003000000B2509D
:1028700003004A07A2534E071F424E07CF930000A2
:1028800005241F424E07DF9300000D201F424E0714
:10289000E24F1902D2439307B0123C70C24337088B
:1028A000B0121E88043CF2423708B0121E881F4244
:1028B0004E071B424A07EB4F000092534A07193C50
:1028C0001F424A07EF430000B25003004A07F2409C
:1028D00007003708B0121E880C3C1F424A07EF431E
:1028E0000000B25003004A07F24005003708B0125A
:1028F0001E883040B437F290050039081821C29381
:1029000028000835C293800705211F424A07FF406F
:1029100007000000B25003004A07A2534E071F42AF
:102920004E07FF900C0000002F241F424E07FF901F
:10293000ED00000029241F424E07FF900500000013
:1029400023241F424E07FF90EF0000001D241F426A
:102950004E07FF900A00000017241F424E07FF9009
:10296000B000000011241F424E07FF900700000036
:102970000B241F424E07FF900B00000005241F424E
:102980004E07FF920000B6201F424E07E14F0000A5
:1029900092534E07C2433A08B240530754070C3CC7
:1029A0001F424E071B425407EB4F0000D2533A0818
:1029B00092534E07B2535407E2923A08F12B6E41FC
:1029C0001C4250071D425207B012C874824CB20616
:1029D000824DB4063E400AD73F40A3BC1C420602CB
:1029E0001D420802B012DC770A4C0B4D1E42B206A3
:1029F0001F42B4060C4A0D4BB0124A910C93592455
:102A00003E400AD73F40A33C1C4206021D4208023A
:102A1000B012DC770A4C0B4D0E4A0F4B1C42B2062B
:102A20001D42B406B0124A910C9343241E42B606CE
:102A30001F42B8061C42B2061D42B406B012D87737
:102A40000A4C0B4D1E428E061F4290061C42060287
:102A50001D420802B012D8770E4A0F4BB012A27B6B
:102A60001E420A021F420C02B0123C79824C0A023A
:102A7000824D0C021E42B6061F42B8061C428E064C
:102A80001D429006B012D8770A4C0B4D1E42AE067E
:102A90001F42B0060C4A0D4BB012DC77824CAE06DA
:102AA000824DB006B0126884C2433708B0121E8847
:102AB000253C3E400AD73F40A33C1C4206021D4233
:102AC0000802B012DC770A4C0B4D1E42B2061F42C0
:102AD000B4060C4A0D4BB0124A910C930624F240F6
:102AE00003003708B0121E88093CE2423708B012D2
:102AF0001E88043CE2433708B0121E881F424A0772
:102B0000EF41000092534A07B24050075407B012F9
:102B10002C8C193C1F424A07EF430000B2500300BF
:102B20004A07F24007003708B0121E880C3C1F42CB
:102B30004A07EF430000B25003004A07F240050085
:102B40003708B0121E883040B437F29005003908BB
:102B5000DA20C2932800CA34C2938007C7201F42DC
:102B60004A07FF4007000000B25003004A07A25383
:102B70004E071F424E07FF900C0000002F241F42FB
:102B80004E07FF90ED00000029241F424E07FF90E2
:102B90000500000023241F424E07FF90EF000000B5
:102BA0001D241F424E07FF900A00000017241F42F9
:102BB0004E07FF90B000000011241F424E07FF9007
:102BC000070000000B241F424E07FF900B0000007F
:102BD00005241F424E07FF92000078201F424E0737
:102BE000E14F000092534E07C2433A08B2405307E8
:102BF00054070C3C1F424E071B425407EB4F00008A
:102C0000D2533A0892534E07B2535407E2923A080D
:102C1000F12B6E411C4250071D425207B012C8747E
:102C2000824CB606824DB8063E400AD73F40A3BC50
:102C30001C428E061D429006B012DC770A4C0B4DEA
:102C40001E42B6061F42B8060C4A0D4BB0124A91FE
:102C50000C931B243E400AD73F40A33C1C428E06E7
:102C60001D429006B012DC770A4C0B4D0E4A0F4BFA
:102C70001C42B6061D42B806B0124A910C930524B8
:102C8000C2433708B0121E88253C3E400AD73F4059
:102C9000A33C1C428E061D429006B012DC770A4C03
:102CA0000B4D1E42B2061F42B4060C4A0D4BB01229
:102CB0004A910C930624F24003003708B0121E8894
:102CC000093CE2423708B0121E88043CE243370850
:102CD000B0121E881F424A07EF41000092534A0774
:102CE000B24050075407B0122C8C193C1F424A07BF
:102CF000EF430000B25003004A07F24007003708D4
:102D0000B0121E880C3C1F424A07EF430000B2502D
:102D100003004A07F24005003708B0121E88304011
:102D2000B4371F424A07EF430000B25003004A077E
:102D3000C29328006934C29380076620C2433708D3
:102D4000B0121E88B24000EC2E027D407E001C4274
:102D50002E02B012C28DB2407EEC2E021F422E0215
:102D6000E29F7E07262092532E021F422E02E29FF0
:102D70007F070320B012FC7F393C82430602B24039
:102D8000803F080282438E0682439006C2436E074C
:102D9000F2400C001602C2436407D2431902C24338
:102DA000350882430E02B24020401002C24372072F
:102DB0001D3C82430602B240803F080282438E06D9
:102DC00082439006C2436E07F2400C001602C243D3
:102DD0006407D2431902C243350882430E02B2404F
:102DE00020401002C2437207D2439307B0123C70D6
:102DF00082430A02B240803F0C028243AE06824305
:102E0000B006B0126884053CF24007003708B012E3
:102E10001E883040B4371F424A07FF4003000000BD
:102E2000B25003004A071F424A07DF427207000000
:102E300092534A07C2433708B0121E883040B43755
:102E4000D29339084120C29328003134C2938007BD
:102E50002E201F424A07FF4003000000B25003002B
:102E60004A07A2534E071F424E07CF930000052486
:102E70001F424E07DF9300000D201F424E07E24F16
:102E80007207D2439307B0123C70C2433708B012A6
:102E90001E88043CF2423708B0121E881F424E07BB
:102EA0001B424A07EB4F000092534A07193C1F424E
:102EB0004A07EF430000B25003004A07F240070000
:102EC0003708B0121E880C3C1F424A07EF4300002F
:102ED000B25003004A07F24005003708B0121E88BE
:102EE0003040B4371F424A07FF420000B25003008F
:102EF0004A07C2433A08B2400DF854070C3C1F423F
:102F000054071B424A07EB4F0000D2533A08925332
:102F10004A0792535407F29006003A08F02BC24336
:102F20003708B0121E883040B4373F400DF8DF93A9
:102F30000000B620E2923908A620C29328009634F9
:102F4000C293800793201F424A07EF430000B2500C
:102F500003004A07B24053075407A2534E07C24327
:102F60003A080C3C1F424E071B425407EB4F00002F
:102F7000D2533A0892534E07B2535407E2923A089A
:102F8000F12B3E4048E13F40AA421C4250071D42FF
:102F90005207B01240910C9364243E4067663F4054
:102FA000D9421C4250071D425207B0124A910C935D
:102FB00058247E400C001C4250071D425207B0129C
:102FC000C874824C5007824D52071E4250071F4260
:102FD00052071C423A021D423C02B012D8770A4CFA
:102FE0000B4D1E42A6061F42A8060C4A0D4BB012FE
:102FF000DC775E43B012A088C24C3A08C2933A080C
:1030000021201E4250071F4252071C423A021D4215
:103010003C02B012D8770A4C0B4D1E42A6061F4246
:10302000A8060C4A0D4BB012DC77824CA606824DE6
:10303000A806D2439307B0123C70C2433708B012BF
:103040001E883A3CD2933A080620F240090037081D
:10305000B0121E88313CF2400A003708B0121E88B8
:103060002B3CF2423708B0121E88263C1F424A070A
:10307000EF430000B25003004A07F2400700370850
:10308000B0121E88193C1F424A07EF430000B2509D
:1030900003004A07F24005003708B0121E880C3CB6
:1030A0001F424A07EF430000B25003004A07F240B4
:1030B00040003708B0121E883040B4371F424A071C
:1030C000EF430000B25003004A07D2933D0813209B
:1030D000C29328000A34C29380070720C2433708EE
:1030E000B0121E88B012B66D0B3CF24007003708D4
:1030F000B0121E88053CF24040003708B0121E880E
:103100003040B437D2933D084420F290060039088D
:1031100033201F424A07FF420000B25003004A0713
:10312000A2534E071F424E07FF90050000001F2CC0
:10313000C2433A08133C1B424E075F423A084F4FC6
:10314000EF4B1F021F424E071B424A07EB4F000086
:10315000D2533A0892534E0792534A07F290060010
:103160003A08E92BC2433708B0121E881E3CF242CF
:103170003708B0121E88193C1F424A07EF4300006F
:10318000B25003004A07F24005003708B0121E880B
:103190000C3C1F424A07EF430000B25003004A07AD
:1031A000F24040003708B0121E883040B4371F424A
:1031B0004A07EF430000B25003004A07F2900600AE
:1031C00039082A20A2534E07C1430000C2433A08DF
:1031D0000E3C5F423A084F4F1B424E07EF9B0011D7
:1031E0000220D1530000D2533A0892534E07F29076
:1031F00006003A08EE2BF190060000000720D243AB
:103200003D08C2433708B0121E880B3CF240400014
:103210003708B0121E88053CF24040003708B01253
:103220001E883040B437D2933D0861201F424A07C0
:10323000FF4014000000B25003004A07A2534E079B
:103240000F413F500300824F54071F424E071B425D
:103250005407EB4F00001F424E071B424A07EB4F3B
:10326000000092534A07B253540792534E071F422D
:103270004E071B425407EB4F00001F424E071B42F4
:103280004A07EB4F000092534A07B190F1FF02004A
:103290001F2CB190001002001B28C2433A08924133
:1032A000020054070C3C1F4254071B424A07EB4FD5
:1032B0000000D2533A0892534A0792535407F290AF
:1032C00010003A08F02BC2433708B0121E881B3C8E
:1032D000B250FBFF4A071F424A07EF420000B250BC
:1032E00005004A07F2423708B0121E880C3C1F4204
:1032F0004A07EF430000B25003004A07F240400083
:103300003708B0121E883040B437D2933D081720DA
:103310001F424A07FF400A000000B25003004A075C
:10332000C2433708B0121E88B24052025407B0128E
:103330002C8CB24056025407B0122C8C0C3C1F420D
:103340004A07EF430000B25003004A07F240400032
:103350003708B0121E883040B437D2933D084C2055
:10336000F290030039083B201F424A07FF40050046
:103370000000B25003004A07A2534E071C424E07FA
:10338000B012FA8AC2433708B0121E881F424E0795
:103390001B424A07EB4F00001F424E07E24F2A0232
:1033A00092534A0792534E071F424E071B424A0749
:1033B000EB4F00001F424E07E24F2B0292534A0789
:1033C00092534E071F424E071B424A07EB4F000025
:1033D0001F424E07E24F2C0292534A07EB3D1F4219
:1033E0004A07EF430000B25003004A07F2400500CD
:1033F0003708B0121E88DE3D1F424A07EF43000027
:10340000B25003004A07F24040003708B0121E884D
:10341000D13DD2933D08AB20F2900D0039089A209F
:103420001F424A07FF400F000000B25003004A0746
:10343000A2534E071F424E07FF900C0000000624C7
:103440001F424E07FF90ED00000009201C424E076E
:10345000B012D681C2433708B0121E88043CE24342
:103460003708B0121E88C2433A080C3C1F424E0770
:103470001B424A07EB4F0000D2533A0892534E07C3
:1034800092534A07F2900D003A08F02BB2404207DF
:1034900054073D4001F81C425407B012C08EB240A0
:1034A00000F854071F425407FF900C0000000E2044
:1034B0000E433F40803F1C4242071D424407B0126A
:1034C0003C79824C4207824D44070D3C0E433F40FD
:1034D0007A441C4242071D424407B0123C79824C98
:1034E0004207824D4407B240B2062E023D4001F829
:1034F0001C422E02B012C08EB240B6062E023D40D3
:1035000005F81C422E02B012C08E1E42B2061F42A7
:10351000B4061C42B6061D42B806B012A27B824C0D
:103520009E06824DA0061E429E061F42A0060C4328
:103530003D40803FB012D8770A4C0B4D0E433F40C0
:1035400048420C4A0D4BB012A27B824C9A06824D27
:103550009C06303D1F424A07EF430000B250030073
:103560004A07F24005003708B0121E88233D1F426B
:103570004A07EF430000B25003004A07F240400000
:103580003708B0121E88163DD2933D0858201F42BE
:103590004A07FF4013000000B25003004A07A2533D
:1035A0004E071F424E07FF9006000000312C1F42BD
:1035B0004E076F4F4F4F0F5F0F5F0F5F0F5F3F5013
:1035C000BE06824F5407A2524E076E42143C1F4261
:1035D0004E071B425407EB4F0000D2533A08B25338
:1035E0004E0792535407E2923A08F12B7E534E93C2
:1035F0000224B2524E074E930324C2433A08F33FCB
:10360000B250F4FF4E07C2433708B0121E88043C84
:10361000E2433708B0121E88C2433A08F290110004
:103620003A08C82C1F424E071B424A07EB4F0000C6
:10363000D2533A0892534E0792534A07EF3F1F4224
:103640004A07EF430000B25003004A07F24040002F
:103650003708B0121E88AE3CD2933D085A201F4254
:103660004A07FF4013000000B25003004A07A2536C
:103670004E071F424E071B424A07EB4F0000925372
:103680004A071F424E07FF90060000003D2C1F42D4
:103690004E076F4F4F4F0F5F0F5F0F5F0F5F3F5032
:1036A000BE06824F5407B0122C8C1F424E076F4F3C
:1036B0004F4F0F5F0F5F0F5F0F5F3F50C206824F8C
:1036C0005407B0122C8C1F424E076F4F4F4F0F5FA5
:1036D0000F5F0F5F0F5F3F50C606824F5407B01257
:1036E0002C8C1F424E076F4F4F4F0F5F0F5F0F5FC6
:1036F0000F5F3F50CA06824F5407B0122C8CC24352
:103700003708B0121E88563CE2433708B0121E88B4
:10371000513C1F424A07EF430000B25003004A07E2
:10372000F24040003708B0121E88443CD2933D0856
:103730001B201F424A07EF430000B25003004A0714
:10374000B0121E89B0123C7082430A02B240803F20
:103750000C028243AE068243B006B0126884C243B4
:103760003708B0121E88263C1F424A07EF4300006C
:10377000B25003004A07F24040003708B0121E88DA
:10378000193CC29334080A2492534E071F424E0735
:103790001B424A07EB4F000092534A071F424A0759
:1037A000EF430000B25003004A07F24040003708E0
:1037B000B0121E88C293360808245F422D024F4F74
:1037C0003F50D607824F5407073C5F422D024F4FB0
:1037D0003F50D207824F5407C293340802249253B9
:1037E00054071F425407DF42370800009253540722
:1037F0001F425407DF4238080000B012CA8F9253AC
:103800004A07E2C319001F424C07E24F77002152DA
:103810003B413A413041B240805A2001C24321002D
:10382000F240ED002200C2432900F2403D002A0090
:10383000C2432E00E2432D00E2432C00E243190074
:10384000F2409B001A00C2431D00F2431E00C24317
:103850003100F2433200C2433500F2433600F2D069
:1038600070005700E2C30200F2435B07023CF253D0
:103870005B07C2935B07FB23E2B30200F32FF2D096
:10388000E0005800B24010006201B240D00772015F
:10389000B24010026001B24010008201B240371005
:1038A0009201B24010018001B24048A52A01B01235
:1038B000D28CF2D219007C43B012308F7C43B0120C
:1038C000308F7C43B012308F7C43B012308F7C42FB
:1038D000B012308F4C43B012308F7C400900B012D0
:1038E000308F7C401000B012308F6C42B012308F9D
:1038F0007C401000B012308F7C402800B012308F16
:103900004C43B012308FC2438807B2406A02660649
:10391000924266066806B2406A068A0692428A06A3
:103920008C0632D2B24000102E027D407E001C4236
:103930002E02B012C28DB2407E102E021F422E0205
:10394000E29F7E07122092532E021F422E02E29F18
:103950007F070320B012727A0F3CD2438207F240F5
:1039600006008307B0122A90073CD2438207F24038
:1039700006008307B0122A90B24008FC2E021F42B4
:103980002E02CF9300000324B0126884123CB24090
:103990000A022E023D4000FC1C422E02B012C08ED4
:1039A000B240AE062E023D4004FC1C422E02B01274
:1039B000C08EB012F88EB24042072E023D4001F890
:1039C0001C422E02B012C08EB24000F82E021F42DE
:1039D0002E02FF900C0000000E200E433F40803F5F
:1039E0001C4242071D424407B0123C79824C4207F8
:1039F000824D44070D3C0E433F407A441C4242072F
:103A00001D424407B0123C79824C4207824D440764
:103A1000B240B2062E023D4001F81C422E02B01206
:103A2000C08EB240B6062E023D4005F81C422E0262
:103A3000B012C08E1E42B2061F42B4061C42B60629
:103A40001D42B806B012A27B824C9E06824DA00693
:103A50001E429E061F42A0060C433D40803FB0120E
:103A6000D8770A4C0B4D0E433F404A420C4A0D4B4F
:103A7000B012A27B824C9A06824D9C063E4009F908
:103A80003F40A03D1C420E021D421002B012A27B1C
:103A90000A4C0B4D0C4A0D4BB01234915C53C24C86
:103AA0009007C29335080E24C243180282433E0792
:103AB000B24080404007B0129A83043CB012808C20
:103AC000C2438907D29330080220B0121A6BC29306
:103AD00066070224B012824AC29387070224B012FA
:103AE000FE7DC2937B070224B012BA825E42610758
:103AF0007EE37EB0A5004524C29361070D38C293D2
:103B000066070A20C2936C070720C2938707042028
:103B1000D2436C07C2436807C29361070F38C29350
:103B200066070C20D2936C070920F2900600680704
:103B30000528C29387070220B012824AD2B36107D8
:103B40000D2CC29366070A20C2936C070720C2930C
:103B500087070420D2436C07C2436807D2B36107CA
:103B6000172CC29366071420D2936C071120F29091
:103B7000150068070D28C29387070A20B012FE7D42
:103B8000073CC29384070220C2436207C2436C070A
:103B9000F2B040001800232CC29366070A20C2939B
:103BA0007D070720C29387070420D2437D07C243C5
:103BB0006807C29366071720D2937D071420F290FE
:103BC0001F0068071028C29387070D20C2937B0748
:103BD0000A20C2937C070720B012BA82043CC24379
:103BE0007C07C2437D07C29366077521C293130207
:103BF0007225C2935E076F21C2931A026C21C29391
:103C000082071824F24057008A07F24044008B07CD
:103C1000F24044008C07F24040008D075C4283076D
:103C2000B012F886C24C8E07C2438F07F2C08000E4
:103C300017022D3C9242AA0646029242AC06480266
:103C4000C29387070620C2937B070320F2D080002F
:103C50001702B0122E63F290ED0016020320F2421A
:103C60008F07023CF2C28F07F2900C00160204206C
:103C7000F24040008F07033CF2C040008F07C29320
:103C800064070324E2D38F07023CE2C38F07184284
:103C90008E06194290060E430F431C428E061D42AB
:103CA0009006B0121C910C930D243E40CDCC3F40A9
:103CB000CCBD1C4206021D420802B0123C79084CE1
:103CC000094D2A3C0E433F4080001C428E061D4297
:103CD0009006B01240910C930B243E4066663F4024
:103CE000663F0C480D49B0123C79084C094D143C14
:103CF0000E430F431C428E061D429006B0124A919D
:103D00000C930A243E40CDCC3F408C3F0C480D49DB
:103D1000B0123C79084C094D1A4206021B420802B7
:103D20000E430F430C4A0D4BB0121C910C930F2401
:103D30003E40CDCC3F40CC3D1C428E061D429006FD
:103D40003DE00080B0123C790A4C0B4D263C0E43FE
:103D50000F430C4A0D4BB0124A910C930B243E407A
:103D600066663F40663F0C4A0D4BB0123C790A4CE8
:103D70000B4D133C0E433F4080000C4A0D4BB012DC
:103D800040910C930A243E40CDCC3F408C3F0C4ADE
:103D90000D4BB0123C790A4C0B4D1E423A021F42A9
:103DA0003C020C4A0D4BB01240910C9324240E4857
:103DB0000F491C423A021D423C02B01240910C9342
:103DC0001A24D29382078420D29383070724E29394
:103DD00083070424F290090083077A20C2933508F0
:103DE0000220D2431802C2438207C2938307702481
:103DF000C24383076D3CF290060083072D24D293C3
:103E000083072A24E29383072724F290090083077B
:103E10002324D24382073E40CDCC3F408C3F1C42FE
:103E200006021D420802B0123C790A4C0B4D0E4AA4
:103E30000F4B1C423A021D423C02B01240910C93BF
:103E40000624D29383070824D2438307053CE293D8
:103E500083070224E2438307F2900600830732249B
:103E6000F290090083072E241E4252021F42540280
:103E70003E8020000F733F90FF0004281A203E90E0
:103E8000C1FF172C0E433F4000421C423A071D421F
:103E90003C07B0124A910C930C203E40E1FF3F409A
:103EA0007F4B1C423A071D423C07B01240910C93D5
:103EB0000924F290090083070524F24009008307D2
:103EC000B0122A90F290060083070220B0122A90C6
:103ED000C2431302123CD2931A020F20C293660708
:103EE0000C20F2438A07F2438B07F2438C07F2431C
:103EF0008D07F2438E07F2438F07F2B010002000C7
:103F000002283040C43A7C405800B012308FC2932F
:103F1000890702243040BC3AD293880702243040FB
:103F2000D843B012808C1F428C068F4C00008F4DFE
:103F30000200A2528C065F421E024F4F0F5F0F5FBE
:103F40003F5066061F928C06052CB2406A068C060E
:103F5000C2431D02D2421E025B0782434E028243CD
:103F60005002C2931D0202243040C43A0B3C1F424F
:103F70008A06A25F4E02926F02005002A2528A0687
:103F8000F2535B07C2935B07F2231C424E021D42B1
:103F900050025E421E024E4E0F43B012888E824C7B
:103FA0004E02824D5002B2406A068A0692424E028A
:103FB00056029242500258021C424E021D425002CA
:103FC0000C533D6080FFB012A0870A4C0B4D3E4061
:103FD00002603F406A3A0C4A0D4BB0123C79084CE3
:103FE000094D3E4060763F4077400C480D49B01285
:103FF0003C790A4C0B4D0E433F4080400C4A0D4B20
:10400000B012A27B824C3A07824D3C075E431C42B1
:104010003A071D423C07B0126086824C3A07824D37
:104020003C07E24388077C401000B012308F4C43BD
:10403000B012308F7C409600B012308FD243890787
:104040001E423A071F423C071C423A071D423C07EA
:10405000B0123C79824C4602824D48021E423A0719
:104060001F423C071C42C2061D42C406B0123C79E6
:104070000A4C0B4D1E4246021F4248021C42C60615
:104080001D42C806B0123C79084C094D1E42BE06BE
:104090001F42C0060C4A0D4BB012DC77064C074D90
:1040A0001E4246021F4248021C42CA061D42CC065E
:1040B000B0123C790A4C0B4D1E423A071F423C0796
:1040C0000C4A0D4BB0123C79044C054D0E480F497B
:1040D0000C460D47B012DC770A4C0B4D0E440F45D1
:1040E0000C4A0D4BB012DC77824C1E07824D200724
:1040F0001E423A071F423C071C42D2061D42D4060C
:10410000B0123C790A4C0B4D1E4246021F42480237
:104110001C42D6061D42D806B0123C79084C094D07
:104120001E42CE061F42D0060C4A0D4BB012DC7761
:10413000064C074D1E4246021F4248021C42DA0648
:104140001D42DC06B0123C790A4C0B4D1E423A0768
:104150001F423C070C4A0D4BB0123C79044C054DF4
:104160000E480F490C460D47B012DC770A4C0B4D38
:104170000E440F450C4A0D4BB012DC77824C2207DF
:10418000824D24071E423A071F423C071C42E206AA
:104190001D42E406B0123C790A4C0B4D1E42460209
:1041A0001F4248021C42E6061D42E806B0123C7956
:1041B000084C094D1E42DE061F42E0060C4A0D4B1C
:1041C000B012DC77064C074D1E4246021F424802E1
:1041D0001C42EA061D42EC06B0123C790A4C0B4D1B
:1041E0001E423A071F423C070C4A0D4BB0123C7965
:1041F000044C054D0E480F490C460D47B012DC77B4
:104200000A4C0B4D0E440F450C4A0D4BB012DC7797
:10421000824C2607824D28071E423A071F423C0760
:104220001C42F2061D42F406B0123C790A4C0B4DBA
:104230001E4246021F4248021C42F6061D42F80674
:10424000B0123C79084C094D1E42EE061F42F006A2
:104250000C4A0D4BB012DC77064C074D1E4246024D
:104260001F4248021C42FA061D42FC06B0123C796D
:104270000A4C0B4D1E423A071F423C070C4A0D4B9D
:10428000B0123C79044C054D0E480F490C460D47C1
:10429000B012DC770A4C0B4D0E440F450C4A0D4B07
:1042A000B012DC77824C2A07824D2C071E423A0757
:1042B0001F423C071C4202071D420407B0123C7912
:1042C0000A4C0B4D1E4246021F4248021C42060782
:1042D0001D420807B0123C79084C094D1E42FE06EB
:1042E0001F4200070C4A0D4BB012DC77064C074DFD
:1042F0001E4246021F4248021C420A071D420C078A
:10430000B0123C790A4C0B4D1E423A071F423C0743
:104310000C4A0D4BB0123C79044C054D0E480F4928
:104320000C460D47B012DC770A4C0B4D0E440F457E
:104330000C4A0D4BB012DC77824C2E07824D3007B1
:104340001E423A071F423C071C4212071D42140737
:10435000B0123C790A4C0B4D1E4246021F424802E5
:104360001C4216071D421807B0123C79084C094D33
:104370001E420E071F4210070C4A0D4BB012DC778D
:10438000064C074D1E4246021F4248021C421A07B5
:104390001D421C07B0123C790A4C0B4D1E423A07D5
:1043A0001F423C070C4A0D4BB0123C79044C054DA2
:1043B0000E480F490C460D47B012DC770A4C0B4DE6
:1043C0000E440F450C4A0D4BB012DC77824C32077D
:1043D000824D34073040C43AE29388074D20B01232
:1043E000808C824C4E02824D50021C424E021D4275
:1043F00050020C533D6080FFB012A0870A4C0B4D59
:104400003E408FC23F4015340C4A0D4BB0123C79F0
:10441000084C094D3E402E563F40543A0C480D4939
:10442000B012A27B0A4C0B4D3E4000803F4088C337
:104430000C4A0D4BB012DC77824C3202824D3402B2
:104440005E431C4232021D423402B0126086824C2E
:104450003202824D3402C24388077C401000B01201
:10446000308F6C42B012308F7C401000B012308F11
:10447000D24389073040C43AB012808C1F4268068C
:104480008F4C00008F4D0200A25268065F429007D9
:104490004F4F0F5F0F5F3F5066021F926806032C5D
:1044A000B2406A026806D2421C025B0782434A029B
:1044B00082434C020B3C1F426606A25F4A02926F87
:1044C00002004C02A2526606F2535B07C2935B07DE
:1044D000F2231C424A021D424C025E421C024E4E16
:1044E0000F43B012888E824C4A02824D4C02B24079
:1044F0006A026606D29290071C02022CD2531C025A
:1045000092424A02520292424C025402B2908000FD
:104510004C022728032082934A02232882534A020E
:10452000B26080FF4C021C424A021D424C02B01293
:10453000A0870A4C0B4D3E408FC23F4015340C4AB9
:104540000D4BB0123C79084C094D0E433F407A4464
:104550000C480D49B0123C79824C3602824D38022B
:10456000283C0E433F4080001E824A021F724C02CC
:10457000824E4A02824F4C021C424A021D424C02A9
:10458000B012A0870A4C0B4D3E408FC23F4015B47D
:104590000C4A0D4BB0123C79084C094D0E433F407C
:1045A0007A440C480D49B0123C79824C3602824D57
:1045B00038029242360236079242380238071E42CB
:1045C00036021F4238021C4222071D422407B01245
:1045D0003C790A4C0B4D1E421E071F4220070C4A15
:1045E0000D4BB012DC77824C3A02824D3C021E42E7
:1045F00036021F4238021C4236071D423807B012ED
:104600003C79824C3607824D38071E4236071F42DE
:1046100038071C4226071D422807B0123C790A4C75
:104620000B4D1E423A021F423C020C4A0D4BB01287
:10463000DC77824C3A02824D3C021E4236021F4217
:1046400038021C4236071D423807B0123C79824CB2
:104650003607824D38071E4236071F4238071C4274
:104660002A071D422C07B0123C790A4C0B4D1E4202
:104670003A021F423C020C4A0D4BB012DC77824CCE
:104680003A02824D3C021E4236021F4238021C4250
:1046900036071D423807B0123C79824C3607824DEE
:1046A00038071E4236071F4238071C422E071D429C
:1046B0003007B0123C790A4C0B4D1E423A021F42A1
:1046C0003C020C4A0D4BB012DC77824C3A02824D10
:1046D0003C021E4236021F4238021C4236071D426F
:1046E0003807B0123C79824C3607824D38071E429B
:1046F00036071F4238071C4232071D423407B012EA
:104700003C790A4C0B4D1E423A021F423C020C4AB5
:104710000D4BB012DC77824C3A02824D3C021E42B5
:104720000A021F420C021C423A021D423C02B01215
:104730003C790A4C0B4D1E42AE061F42B0060C4A95
:104740000D4BB012DC77084C094D1E42A6061F42E5
:10475000A8060C480D49B012D877824C3A02824D17
:104760003C021C423A021D423C02B012047F824CC1
:10477000AA06824DAC061E428E061F4290061C42BF
:1047800006021D420802B012D8770A4C0B4D0E43A8
:104790003F40C8420C4A0D4BB012A27B084C094D59
:1047A0001E428E061F4290061C423A021D423C02E7
:1047B000B012D8770A4C0B4D0E480F490C4A0D4BDE
:1047C000B012A27B824C4202824D4402C293640723
:1047D000B3240E433F40C8421C4206021D42080259
:1047E000B012A27B0A4C0B4D3E40CDCC3F404C3F1B
:1047F0000C4A0D4BB0123C79084C094D0E480F493C
:104800001C423A021D423C02B01240910C932724F4
:104810001E4206021F4208021C423A021D423C028E
:10482000B012A27B0A4C0B4D0C4A0D4BB012EE801D
:10483000084C094D0E433F4080410C480D49B012D1
:104840003C790A4C0B4D0E433F4080400C4A0D4BC7
:10485000B012DC77824C3E02824D4002A13C0E43F6
:104860003F40C8421C4206021D420802B012A27B11
:104870000A4C0B4D3E409A993F40193F0C4A0D4B54
:10488000B0123C79084C094D1E423A021F423C02CC
:104890000C480D49B01240910C9321241E4206028F
:1048A0001F4208020C433D408041B012A27B0A4CDB
:1048B0000B4D1E423A021F423C020C4A0D4BB012F5
:1048C0003C79084C094D0E433F4080400C480D494F
:1048D000B012DC77824C3E02824D4002613C1E42A7
:1048E00006021F4208021C423A021D423C02B0125C
:1048F000A27B0A4C0B4D3E40A69B3F40C4BB0C4ADA
:104900000D4BB012DC77084C094D3E4000E03F40B3
:1049100026440C480D49B0123C790A4C0B4D3E40E0
:104920006F123F4083400C4A0D4BB012DC77824C33
:104930003E02824D4002343C1E428E061F429006CB
:104940001C4206021D420802B012D8770A4C0B4DD9
:104950000E4A0F4B0C433D408041B012A27B084CE5
:10496000094D1E428E061F4290061C423A021D420D
:104970003C02B012D8770A4C0B4D0E480F490C4A36
:104980000D4BB0123C79064C074D0E433F40804022
:104990000C460D47B012DC77824C3E02824D40023D
:1049A000C2936E070D241E423E021F4240020C437A
:1049B0003D40C041B012D877824C3E02824D400249
:1049C0003E4034333F4073401C423E021D42400291
:1049D000B01240910C930E240E433F40A4411C4260
:1049E0003E021D424002B0124A910C930324C2437E
:1049F0009207243C3E4033333F4073401C423E020A
:104A00001D424002B0124A910C930624B240333347
:104A10003E02B240734040021E433F40A4411C424C
:104A20003E021D424002B01240910C930524824385
:104A30003E02B240A4414002D2439207C293180200
:104A4000082492423E023E07924240024007B012C2
:104A50009A83D293120202243040C43AD243880788
:104A60007C401000B012308F6C43B012308F7C400D
:104A70001100B012308FC2431202D2438907304076
:104A8000C43AC29366070324D2936A07372092423E
:104A90000602920692420802940692428E069606FA
:104AA000924290069806D24290079107D2426E0732
:104AB0006F07D24216026307D24264076507D242EB
:104AC00019027007D24235085D0792420E02A20613
:104AD00092421002A406D24280078107D242720796
:104AE0007107D24218026D07D2436907C2436A07B1
:104AF000F24005007907F2D080001702C2938407C4
:104B00000A24F2900B0068070628C2438407C243B8
:104B10006707B0120E5DD29313021320F2900900C2
:104B200066070B24F2900A0066070B20D2936907F0
:104B30000424F290030069070420C2431302B01258
:104B40000E5DC29386073724F2900B006807332866
:104B5000C2438607D2536907D29369070F20F290A8
:104B60000B0066070B20E24378075E4278070C4390
:104B70003D408040B012FC67D2436B07F2900300C7
:104B800069070F20F2900B0066070B20E2437807BD
:104B90005E4278070C433D40A041B012FC67D2430F
:104BA0006B07F290050069070428C2436B07C243F4
:104BB0006707B0120E5DC29362070224304024568C
:104BC0005E4261077E8025000F247E8060000525FF
:104BD0007E801C000220304074527E800300022040
:104BE00030402A5230402456C2436807C2936607B9
:104BF0000820C29367070520D2436607B0120E5DF6
:104C0000E83CC29366078A24C29367078720E29331
:104C100066071A20B012C485C24C7807F2900600CD
:104C200078070D2C1C4292061D429406B012047F98
:104C30005E427807B012FC67D2436B07053CD24353
:104C40008407F24007008507F290030066072620DC
:104C5000B012C485C24C78070E430F431C4296061F
:104C60001D429806B0124A910C930224D253780741
:104C7000F290060078070D2C1C4296061D429806FD
:104C8000B012047F5E427807B012FC67D2436B0714
:104C9000053CD2438407F24007008507F2900A00E2
:104CA00066070420C2436907D2438607F2900B00CF
:104CB00066071020C29335080D20C2436907D2430E
:104CC0008607C243180282433E07B2408040400735
:104CD000B0129A83F2900B0066070720F2900B0047
:104CE00066070A20C29335080720D2436707F2C03F
:104CF00080001702B0120E5DF2900F006607692067
:104D0000F240030078075E4278070C430D43B0126F
:104D1000FC67D2436B07B0120E5D5B3CF2900A0059
:104D200066071820D29369070B20D24386075C429E
:104D30006607B0125256E2436907B0120E5D493C55
:104D40005C426607B0125256B0120E5DF2D080007F
:104D500017023F3CF2900B0066072B20D2936907A5
:104D60001720D24386075C426607B0125256E243D0
:104D70006907B0120E5DC2436B07F2400500790768
:104D800082433E07B240A0414007B0129A83213CC3
:104D90005C426607B0125256D2431802B0120E5D42
:104DA000F2D080001702C2436B07F240050079077A
:104DB000103CC24367075C426607B0125256B012FD
:104DC0000E5DF2D080001702C2436B07F24005006F
:104DD0007907D243620730402456C2436807C29322
:104DE000670702203040F051D29366074220F290CC
:104DF0000C0063070420F240ED0063073A3CF29098
:104E0000ED0063070420F24005006307323CF29096
:104E1000050063070420F240EF0063072A3CF2908C
:104E2000EF0063070420F2400A006307223CF2907F
:104E30000A0063070420F240B00063071A3CF290B6
:104E4000B00063070420F24007006307123CF290B1
:104E5000070063070420F2400B0063070A3CF2904E
:104E60000B0063070320F2426307033CF2400C008F
:104E70006307E29366070C24F29003006607082498
:104E8000F2900B0066070424F2900F006607722070
:104E9000D29379073D20F29009007307032CD25377
:104EA0007307363CE29366070424F290030066071A
:104EB0002D20F290100073070E20F2537807D24293
:104EC00075077407D24276077507D24277077607CF
:104ED000D2427A077707F290090073071420F24054
:104EE00010007307D2537807D24277077A07D2426D
:104EF00076077707D24275077607D242740775079F
:104F0000C2437407053CC2437307023CC2437307A4
:104F1000E29379070920F29009007407032CD25319
:104F20007407023CC2437407F2900300790709201A
:104F3000F29009007507032CD2537507023CC24357
:104F40007507E29279070920F29009007607032C91
:104F5000D2537607023CC2437607F29005007907E8
:104F60000920F29009007707032CD2537707023CFF
:104F7000C2437707E292660792203E40CECC3F4084
:104F80004C3D1C42A2061D42A406B0124A910C934D
:104F90000724B240CDCCA206B240CC3DA4067F3C53
:104FA0003E40CECC3F40CC3D1C42A2061D42A40652
:104FB000B0124A910C930724B240CDCCA206B24065
:104FC0004C3EA4066C3C3E40CECC3F404C3E1C4286
:104FD000A2061D42A406B0124A910C9306248243F5
:104FE000A206B240003FA4065A3C1E433F40003F89
:104FF0001C42A2061D42A406B0124A910C9306243C
:105000008243A206B240803FA406493C1E433F4073
:10501000803F1C42A2061D42A406B0124A910C9386
:1050200006248243A206B2400040A406383C1E4338
:105030003F4000401C42A2061D42A406B0124A9105
:105040000C9306248243A206B240A040A406273C4B
:105050001E433F40A0401C42A2061D42A406B012BF
:105060004A910C9306248243A206B2402041A40632
:10507000163C1E433F4020411C42A2061D42A4068E
:10508000B0124A910C9306248243A206B240A0417A
:10509000A406053C8243A206B240A041A406F290B9
:1050A000050066070220D2E36507F2900600660756
:1050B0000220D2E36F07F290070066070920F29002
:1050C0000F005D07032CD2535D07023CC2435D070E
:1050D000F29266070220D2E37007F2900C00660796
:1050E0007A20C29335087720C29318020924C2435C
:1050F0001802B240D7343E07B24073404007693CC3
:105100003E40D8343F4073401C423E071D4240079A
:10511000B0124A910C93062482433E07B24080406D
:105120004007573C1E433F4080401C423E071D4203
:105130004007B0124A910C93062482433E07B240C6
:1051400000414007463C1E433F4000411C423E0791
:105150001D424007B0124A910C93062482433E0739
:10516000B24040414007353C1E433F4040411C4255
:105170003E071D424007B0124A910C930624824319
:105180003E07B24080414007243C1E433F408041DF
:105190001C423E071D424007B0124A910C93062460
:1051A00082433E07B240A0414007133C1E433F40AC
:1051B000A0411C423E071D424007B0124A910C9389
:1051C000062482433E07B240B4414007023CD2432A
:1051D0001802B0129A83F2900D0066070220D2E303
:1051E0008107F2900E0066071B20D2E37107183C7E
:1051F0003F400DF8DF9300000A20F2900F00660791
:10520000032CD25366070C3CD2436607093CF2904C
:105210000E006607032CD2536607023CD243660792
:10522000B0120E5DD2436207FD3DC2436807C293D0
:1052300067071B24F2900C0066070520D2936D07C8
:105240000220D2431802F2900B0066070220D243DC
:105250001802C2436707B0120E5DF2D08000170239
:10526000D2436A07C2436B07023CC2436607D2437C
:105270006207D83DC2436807C293670719203F40C1
:105280000DF8DF9300000A20E29366070328F2532B
:105290006607C43DF2400F006607C03DE293660713
:1052A0000328F2536607BA3DF2400E006607B63D8A
:1052B000D29366074920F2900C0063070320F24264
:1052C0006307423CF290ED0063070420F2400C00BB
:1052D00063073A3CF290050063070420F240ED00BA
:1052E0006307323CF290EF0063070420F2400500B0
:1052F00063072A3CF2900A0063070420F240EF00A3
:105300006307223CF290B00063070420F2400A00D9
:1053100063071A3CF290070063070420F240B000D4
:105320006307123CF2900B0063070420F240070071
:1053300063070A3CF29263070420F2400B00630704
:10534000033CF2400C006307E29366070C24F290E2
:10535000030066070824F2900B0066070424F2900D
:105360000F0066071E20F290050079070320E24235
:105370007907173CE29279070420F240030079078D
:10538000103CF290030079070320E2437907093CBF
:10539000E29379070320D2437907033CF2400500EA
:1053A0007907E292660793200E433F40A0411C42DA
:1053B000A2061D42A406B01240910C93062482431B
:1053C000A206B2402041A406823C0E433F40204149
:1053D0001C42A2061D42A406B01240910C93062462
:1053E0008243A206B240A040A406713C0E433F4057
:1053F000A0401C42A2061D42A406B01240910C938C
:1054000006248243A206B2400040A406603C0E433C
:105410003F4000401C42A2061D42A406B01240912B
:105420000C9306248243A206B240803FA4064F3C60
:105430000E433F40803F1C42A2061D42A406B0120C
:1054400040910C9306248243A206B240003FA4067A
:105450003E3C0E433F40003F1C42A2061D42A406B4
:10546000B01240910C930724B240CDCCA206B240BA
:105470004C3EA4062C3C3E40CDCC3F404C3E1C4212
:10548000A2061D42A406B01240910C930724B2401C
:10549000CDCCA206B240CC3DA406193C3E40CDCCBA
:1054A0003F40CC3D1C42A2061D42A406B0124091D2
:1054B0000C930724B240CDCCA206B2404C3DA406CA
:1054C000063CB240CDCCA206B2404C3DA406F290C0
:1054D000050066070220D2E36507F2900600660722
:1054E0000220D2E36F07F290070066070920C293FB
:1054F0005D070324F2535D07033CF2400F005D0794
:10550000F29266070220D2E37007F2900C00660761
:105510007920C29335087620C29318020824C2432A
:10552000180282433E07B240B4414007693C0E4333
:105530003F40B4411C423E071D424007B01240911B
:105540000C93062482433E07B240A0414007583CDA
:105550000E433F40A0411C423E071D424007B0128F
:1055600040910C93062482433E07B240804140079D
:10557000473C0E433F4080411C423E071D424007CE
:10558000B01240910C93062482433E07B240404142
:105590004007363C0E433F4040411C423E071D42FF
:1055A0004007B01240910C93062482433E07B2405C
:1055B00000414007253C0E433F4000411C423E074E
:1055C0001D424007B01240910C93062482433E07CF
:1055D000B24080404007143C0E433F4080401C4294
:1055E0003E071D424007B01240910C930724B24081
:1055F000D7343E07B24073404007023CD243180202
:10560000B0129A83F2900D0066070220D2E3810760
:10561000F2900E0066070220D2E37107B0120E5D11
:10562000D2436207F290FA0068071228F2900C0049
:1056300066070520D2936D070220D2431802C243A9
:105640006607C2436707F2D080001702C2436B07A8
:1056500030410A120B12C293280002383040005D1C
:105660005E4266078E113E90100002283040085DB1
:105670000E5E104E7656085D9656B0567C574858CA
:10568000A258BC58D6580C5924597C59E45A085D84
:10569000F85B105C285CD292160263070724D242A2
:1056A00063071602D2439307B0123C703040085D86
:1056B000B01250765E421602B012C874824C920646
:1056C000824D94061E433F40803F1C4292061D427D
:1056D0009406B0124A910C9349243E406F123F4009
:1056E00083BA1C429E061D42A006B012DC770A4C0B
:1056F0000B4D0E4A0F4B1C4292061D429406B012EF
:1057000040910C9333243E406F123F4083BA1C42B9
:105710009A061D429C06B012DC770A4C0B4D1E42C5
:1057200096061F4298061C4292061D429406B0122D
:10573000D8770E4A0F4BB01240910C9317241E429B
:1057400006021F4208021C4292061D429406B01235
:1057500010910C93112492429206060292429406F2
:105760000802D2439307B0123C70063CD243840730
:10577000C2438507D2436A073040085DB0125076B5
:105780005E421602B012C874824C9606824D98068C
:105790001E433F40803F1C4296061D429806B012B1
:1057A0004A910C9349243E406F123F4083BA1C42F9
:1057B0009E061D42A006B012DC770A4C0B4D0E4A25
:1057C0000F4B1C4296061D429806B01240910C9356
:1057D00033243E406F123F4083BA1C429A061D425A
:1057E0009C06B012DC770A4C0B4D1E4296061F42F7
:1057F00098061C4292061D429406B012D8770E4AB3
:105800000F4BB01240910C9317241E428E061F427C
:1058100090061C4296061D429806B01210910C93F9
:105820001124924296068E06924298069006D24322
:105830009307B0123C70063CD2438407C2438507ED
:10584000D2436A073040085D1E420E021F4210021A
:105850001C42A2061D42A406B01210910C931F24F4
:105860009242A2060E029242A40610023E4009F99C
:105870003F40A03D1C420E021D421002B012A27B0E
:105880000A4C0B4D0C4A0D4BB01234915C53C24C78
:105890009007D2431C02D2439307B0123C703040B1
:1058A000085DD292640765070724D2426507640742
:1058B000D2439307B0123C703040085DD2926E071D
:1058C0006F070724D2426F076E07D2439307B012C7
:1058D0003C703040085DD29235085D071624D242F4
:1058E0005D073508D2439307B0123C70C293350868
:1058F0000A24C243180282433E07B2408040400758
:10590000B0129A83023CD2431802FE3DD292190291
:105910007007FA25D24270071902D2439307B012DA
:105920003C70F23D1E423A021F423C021C42A60657
:105930001D42A806B012DC770A4C0B4D4E430C4AB0
:105940000D4BB012A0884C9313201E423A021F4206
:105950003C021C42A6061D42A806B012DC77824C0F
:10596000A606824DA806D2439307B0123C70CC3DE8
:10597000D2438407F24003008507C63DD2936907EE
:10598000372092423A02620292423C0264023E4056
:105990000AD73F40A3BC1C428E061D429006B0129F
:1059A000DC770A4C0B4D1E4262021F4264020C4A15
:1059B0000D4BB0124A910C9316243E400AD73F403B
:1059C000A33C1C428E061D429006B012DC770A4CA6
:1059D0000B4D0E4A0F4B1C4262021D426402B01274
:1059E0004A910C939121D2438407E24285078C3D72
:1059F00092423A02660292423C0268023E400AD754
:105A00003F40A3BC1C4206021D420802B012DC77D4
:105A10000A4C0B4D1E4266021F4268020C4A0D4B97
:105A2000B0124A910C9359243E400AD73F40A33C00
:105A30001C4206021D420802B012DC770A4C0B4DD4
:105A40000E4A0F4B1C4266021D426802B0124A9178
:105A50000C9343241E4262021F4264021C426602EF
:105A60001D426802B012D8770A4C0B4D1E428E06BA
:105A70001F4290061C4206021D420802B012D8774F
:105A80000E4A0F4BB012A27B1E420A021F420C02AA
:105A9000B0123C79824C0A02824D0C021E42620214
:105AA0001F4264021C428E061D429006B012D87737
:105AB0000A4C0B4D1E42AE061F42B0060C4A0D4B5F
:105AC000B012DC77824CAE06824DB006B01268840C
:105AD000D2438607E2426907173DD2438407E24278
:105AE0008507123DD29369072120B0125076824C6F
:105AF0005A02824D5C021E433F4060401C425A02E3
:105B00001D425C02B01240910C930B240E433F40A7
:105B100090401C425A021D425C02B0124A910C9302
:105B2000F320D2438407E2428507EE3CB012507660
:105B3000824C5E02824D60021E433F409C411C42EB
:105B40005E021D426002B01240910C9350240E433D
:105B50003F40A4411C425E021D426002B0124A91C5
:105B60000C9345241E4202021F4204020C433D4096
:105B70008041B012A27B0A4C0B4D0C4A0D4BB01267
:105B8000988FB0128C870A4C0B4D1E425A021F424E
:105B90005C021C425E021D426002B012D8770E4ABF
:105BA0000F4BB012A27B824C0202824D04021E42B5
:105BB0005A021F425C020C433D408040B012D8772D
:105BC0000A4C0B4D1E4202021F4204020C4A0D4BAE
:105BD000B012A27BB012988F825C0002D24393076E
:105BE000B0123C70D2438607E24269078D3CD24333
:105BF0008407E2428507883CD2928007810784248B
:105C0000D24281078007D2439307B0123C707C3C9C
:105C1000D292720771077824D24271077207D24379
:105C20009307B0123C70703CB0125076824CBA06AA
:105C3000824DBC063E4049E13F40AA421C42BA06A2
:105C40001D42BC06B01240910C9354243E4066663F
:105C50003F40D9421C42BA061D42BC06B0124A91CE
:105C60000C9348247E400C001C42BA061D42BC0620
:105C7000B012C874824CBA06824DBC061E42BA06E7
:105C80001F42BC061C423A021D423C02B012D877A9
:105C90000A4C0B4D1E42A6061F42A8060C4A0D4B8D
:105CA000B012DC775E43B012A0884C931D201E42D8
:105CB000BA061F42BC061C423A021D423C02B01208
:105CC000D8770A4C0B4D1E42A6061F42A8060C4A66
:105CD0000D4BB012DC77824CA606824DA806D2434B
:105CE0009307B0123C70103CD2438407F24003008B
:105CF00085070A3CD2438407F24003008507043C31
:105D0000D2438407F24285073B413A4130410A12AF
:105D1000C29384071824F24057008A07F2404400D7
:105D20008B07F24044008C07F24040008D075C4234
:105D30008507B012F886C24C8E07C2438F07D24344
:105D40006A0730402A63C293670702203040C4626A
:105D50005E4266078E113E901000022830402A6392
:105D60000E5E104E665D2A63865D1C5E925E085F65
:105D70001C5F565F985FFA5F32604860CA60AE6130
:105D8000E6611E625062C2438A07C2438B07C24368
:105D90008C07F2900C0063070220C2435C07F2906C
:105DA000ED0063070220D2435C07F2900500630711
:105DB0000220E2435C07F290EF0063070320F24009
:105DC00003005C07F2900A0063070220E2425C07CE
:105DD000F290B00063070320F24005005C07F290E8
:105DE000070063070320F24006005C07F2900B00F7
:105DF00063070320F24007005C07F292630702206A
:105E0000F2425C075C425C07B012F886C24C8D0718
:105E1000C2438E07C2438F0730402A635C42730738
:105E2000B012F886C24C8A07D29378070320F2D0CA
:105E300080008A075C427407B012F886C24C8B0758
:105E4000E29378070320F2D080008B075C4275074D
:105E5000B012F886C24C8C07F2900300780703203A
:105E6000F2D080008C075C427607B012F886C24CF4
:105E70008D07E29278070320F2D080008D075C4204
:105E80007707B012F886C24C8E07C2438F073040A6
:105E90002A635C427307B012F886C24C8A07D29319
:105EA00078070320F2D080008A075C427407B012A2
:105EB000F886C24C8B07E29378070320F2D080006B
:105EC0008B075C427507B012F886C24C8C07F290C3
:105ED000030078070320F2D080008C075C4276072D
:105EE000B012F886C24C8D07E29278070320F2D0F8
:105EF00080008D075C427707B012F886C24C8E078F
:105F0000C2438F0730402A639242A2064602924261
:105F1000A4064802B0122E6330402A63C2438A07A7
:105F2000C29365070A24F24073008B07F2407A009F
:105F30008C07F24044008D07093CF24015008B07A6
:105F4000F24020008C07F24064008D07C2438E07A8
:105F5000C2438F07EA3DC2438A07C2936F070D24ED
:105F6000F2404F008B07F2403F008C07F2404000A8
:105F70008D07F24078008E070C3CF24078008B07CA
:105F8000F24040008C07F2404F008D07F2403F0086
:105F90008E07C2438F07C93DC2438A07C2438B079E
:105FA0005C425D077E400A00B012BE904C930B2409
:105FB0005C425D077E400A00B012BE90B012F886C7
:105FC000C24C8C07023CC2438C075A425D075C42BC
:105FD0005D077E400A00B012BE904C5C4E4C4C5C9B
:105FE0004C5C4C5E4A8C4C4AB012F886C24C8D0711
:105FF000C2438E07C2438F07983DC2438A07C293AC
:1060000070070924C2438B07F2403F008C07F2401F
:1060100064008D07093CF2403F008B07F2405600B8
:106020008C07F24056008D07C2438E07C2438F078C
:106030007C3D9242AA0646029242AC064802B01249
:106040002E63C2438F07713DC29369070F20F24050
:1060500015008A07F24065008B07C2438C07F240A7
:106060005E008D07F24044008E072C3CE2936907E6
:106070000F20F2407C008A07F24020008B07C243C9
:106080008C07F2405E008D07F24044008E071A3CF8
:10609000E29269070F20C2438A07F2406D008B0726
:1060A000F24065008C07F24064008D07F240570013
:1060B0008E07083C9242AA0646029242AC0648026B
:1060C000B0122E63C2438F07303DC2936907102080
:1060D000F24015008A07F24065008B07F240170076
:1060E0008C07F24025008D07F24044008E075C3C8F
:1060F000E29369071020F2407C008A07F2402000FA
:106100008B07F24017008C07F24025008D07F24004
:1061100044008E07493CE29269070F20C2438A0778
:10612000F2406D008B07F24065008C07F24064007E
:106130008D07F24057008E07373C5C427307B01260
:10614000F886C24C8A07D29378070320F2D08000E9
:106150008A075C427407B012F886C24C8B07E29340
:1061600078070320F2D080008B075C427507B012DD
:10617000F886C24C8C07F290030078070320F2D017
:1061800080008C075C427607B012F886C24C8D07FF
:10619000E29278070320F2D080008D075C427707F7
:1061A000B012F886C24C8E07C2438F07BE3CC29322
:1061B00018021024C2438A07F2403F008B07F240C6
:1061C00056008C07F24056008D07C2438E07C2432B
:1061D0008F07AB3C92423E0746029242400748027C
:1061E000B012BA72A23CC2438A07C2938107092443
:1061F000C2438B07F2403F008C07F24064008D07DA
:10620000093CF2403F008B07F24056008C07F240F9
:1062100056008D07C2438E07C2438F07863CC24398
:106220008A07C2438B07C29371070724F2407C00A0
:106230008C07F24020008D07063CF24015008C07C9
:10624000F24065008D07C2438E07C2438F076D3C45
:106250005C427307B012F886C24C8A07D293780763
:106260000320F2D080008A075C427407B012F886DF
:10627000C24C8B07E29378070320F2D080008B0793
:106280005C427507B012F886C24C8C07F29003008E
:1062900078070320F2D080008C075C427607B012AA
:1062A000F886C24C8D07E29278070320F2D0800076
:1062B0008D075C427707B012F886C24C8E07C24346
:1062C0008F07333CF24056008A07F24025008B07C7
:1062D000F24064008C075C4266077E400A00B01200
:1062E000BE904C930B245C4266077E400A00B012BD
:1062F000BE90B012F886C24C8D07023CC2438D0797
:106300005A4266075C4266077E400A00B012BE90A1
:106310004C5C4E4C4C5C4C5C4C5E4A8C4C4AB01213
:10632000F886C24C8E07C2438F073A413041318014
:106330000A00C14300000E430F431C4246021D42A7
:106340004802B0124A910C9313246F414F4F0F51E2
:10635000FF402D0001001E4246021F4248023FE05E
:106360000080824E4602824F4802D15300003F3CDB
:106370003E4000503F40C3471C4246021D42480277
:10638000B0124A910C9333241C4246021D4248022B
:10639000B01234913E4010270F43B012888E6F41E7
:1063A0004F4F0F51CF4C01006F414F4F0F51021211
:1063B00032C20343D24F01003001B24010273801EE
:1063C0001C423A0132410D4C0D5D0D7D3DE3B01292
:1063D0008C870E4C0F4D1C4246021D424802B012E3
:1063E000D877824C4602824D4802D15300003E408D
:1063F00000403F401C461C4246021D424802B0126B
:106400004A910C93E6251C4246021D424802B012F6
:1064100034913E40E803B012C2906F414F4F0F518C
:10642000CF4C01006F414F4F0F51021232C2034354
:10643000D24F01003001B240E80338011C423A015A
:1064400032410D4C0D5D0D7D3DE3B0128C870E4C3D
:106450000F4D1C4246021D424802B012D877824CB2
:106460004602824D4802D15300001C4246021D42A2
:106470004802B01234913E406400B012C2906F41A5
:106480004F4F0F51CF4C01006F414F4F0F515C4F99
:1064900001004C4C0C5C0C5C0F4C0C5C0C5C0C5C00
:1064A0000F5C0C5C0C5F0D4C0D5D0D7D3DE3B0127F
:1064B0008C870E4C0F4D1C4246021D424802B01202
:1064C000D877824C4602824D4802D15300001C42CC
:1064D00046021D424802B01234913E400A00B012FA
:1064E000C2906F414F4F0F51CF4C01006F414F4F42
:1064F0000F515C4F01004C4C0C5C0F4C0C5C0C5C65
:106500000C5F0D4C0D5D0D7D3DE3B0128C870E4C84
:106510000F4D1C4246021D424802B012D877824CF1
:106520004602824D4802D15300001C4246021D42E1
:106530004802B01234911E43B012C2906F414F4FC7
:106540000F51CF4C01006F414F4F0F515C4F010075
:106550004C4C0D43B012A0870E4C0F4D1C4246020E
:106560001D424802B012D877824C4602824D480242
:10657000D15300003E4000403F401C461C424602B2
:106580001D424802B0123C79824C4602824D4802BC
:106590001C4246021D424802B01234913E40E803BC
:1065A000B012C2906F414F4F0F51CF4C01006F415D
:1065B0004F4F0F51021232C20343D24F010030013C
:1065C000B240E80338011C423A0132410D4C0D5DE6
:1065D0000D7D3DE3B0128C870E4C0F4D1C424602E0
:1065E0001D424802B012D877824C4602824D4802C2
:1065F000D15300001C4246021D424802B0123491A1
:106600003E406400B012C2906F414F4F0F51CF4CCB
:1066100001006F414F4F0F515C4F01004C4C0C5C1F
:106620000C5C0F4C0C5C0C5C0C5C0F5C0C5C0C5F31
:106630000D4C0D5D0D7D3DE3B0128C870E4C0F4D62
:106640001C4246021D424802B012D877824C4602D4
:10665000824D4802D15300001C4246021D424802AE
:10666000B01234913E400A00B012C2906F414F4FB9
:106670000F51CF4C01006F414F4F0F515C4F010044
:106680004C4C0C5C0F4C0C5C0C5C0C5F0D4C0D5DB1
:106690000D7D3DE3B0128C870E4C0F4D1C4246021F
:1066A0001D424802B012D877824C4602824D480201
:1066B000D15300001C4246021D424802B0123491E0
:1066C0001E43B012C2906F414F4F0F51CF4C01008B
:1066D0006F414F4F0F515C4F01004C4C0D43B012B6
:1066E000A0870E4C0F4D1C4246021D424802B012BC
:1066F000D877824C4602824D4802C14300006F4168
:106700004F4F0F51FF902D0001000820F240400034
:106710008A07D1530000023CD15300006F414F4F14
:106720000F51CF9301000320E1920000F52BF1906F
:106730002D00010011246F414F4F0F515C4F01009C
:10674000B012F886C24C8A07E19200000320F2D012
:1067500080008A07D15300006F414F4F0F515C4FAB
:106760000100B012F886C24C8B07E19200000320B2
:10677000F2D080008B07D15300006F414F4F0F5173
:106780005C4F0100B012F886C24C8C07E192000009
:106790000320F2D080008C07D15300006F414F4F8F
:1067A0000F515C4F0100B012F886C24C8D07E19288
:1067B00000000320F2D080008D07D15300006F410C
:1067C0004F4F0F515C4F0100B012F886C24C8E073C
:1067D000123CF24057008A07F24044008B07F24017
:1067E00044008C07F24040008D07F2402A008E07DB
:1067F000F2C08000170231500A0030410A120B1219
:10680000081231800A000A4C0B4D484EC14300006B
:106810000E430F430C4A0D4BB0124A910C930424C3
:106820003BE00080D14300000C4A0D4BB012349184
:106830003E4010270F43B012888EC14C0100021257
:1068400032C20343D24103003001B2401027380165
:106850001C423A0132410D4C0D5D0D7D3DE3B012FD
:106860008C870E4C0F4D0C4A0D4BB012D8770A4C4A
:106870000B4D0C4A0D4BB01234913E40E803B01260
:10688000C290C14C0200021232C20343D241040042
:106890003001B240E80338011C423A0132410D4C4C
:1068A0000D5D0D7D3DE3B0128C870E4C0F4D0C4AF3
:1068B0000D4BB012D8770A4C0B4D0C4A0D4BB01251
:1068C00034913E406400B012C290C14C03005C4160
:1068D00003004C4C0C5C0C5C0F4C0C5C0C5C0C5CBA
:1068E0000F5C0C5C0C5F0D4C0D5D0D7D3DE3B0123B
:1068F0008C870E4C0F4D0C4A0D4BB012D8770A4CBA
:106900000B4D0C4A0D4BB01234913E400A00B012B0
:10691000C290C14C04005C4104004C4C0C5C0F4C18
:106920000C5C0C5C0C5F0D4C0D5D0D7D3DE3B012FD
:106930008C870E4C0F4D0C4A0D4BB012D8770A4C79
:106940000B4D0C4A0D4BB01234911E43B012C29045
:10695000C14C05005C4105004C4C0D43B012A087B2
:106960000E4C0F4D0C4A0D4BB012D8770A4C0B4D04
:106970003E4000403F401C460C4A0D4BB0123C7953
:106980000A4C0B4D0C4A0D4BB01234913E40E803BB
:106990000F43B012888EC14C0600021232C203436C
:1069A000D24108003001B240E80338011C423A01EC
:1069B00032410D4C0D5D0D7D3DE3B0128C870E4CC8
:1069C0000F4D0C4A0D4BB012D8770A4C0B4D0C4AA8
:1069D0000D4BB01234913E406400B012C290C14CD5
:1069E00007005C4107004C4C0C5C0C5C0F4C0C5CD1
:1069F0000C5C0C5C0F5C0C5C0C5F0D4C0D5D0D7D3C
:106A00003DE3B0128C870E4C0F4D0C4A0D4BB0126B
:106A1000D8770A4C0B4D0C4A0D4BB01234913E40C6
:106A20000A00B012C290C14C08005C4108004C4CF6
:106A30000C5C0F4C0C5C0C5C0C5F0D4C0D5D0D7D0B
:106A40003DE3B0128C870E4C0F4D0C4A0D4BB0122B
:106A5000D8770A4C0B4D0C4A0D4BB01234911E43A3
:106A6000B012C290C14C09005C4109004C4C0D436E
:106A7000B012A0870E4C0F4D0C4A0D4BB012D877B8
:106A80000A4C0B4D7E4005004E88484EC1930000D5
:106A90001F24F2401000730758534F480F51D24F34
:106AA000010074070F411F5348480F58D24F01008F
:106AB00075070F411F5348480F58D24F0200760701
:106AC0000F411F5348480F58D24F03007707213C0E
:106AD0004F480F51D24F010073070F411F534848D1
:106AE0000F58D24F010074070F411F5348480F58E9
:106AF000D24F020075070F411F5348480F58D24F1D
:106B0000030076070F411F5348480F58D24F040027
:106B1000770731500A0030400891C2432F08F292A3
:106B200032084329C29333084021043C925346075C
:106B3000F25332089292480746070E24C2932F0858
:106B40002B241F424607EF93000006241F424607EE
:106B5000FF90820000000720C2932F082625B24034
:106B600008084E072E3CC2432F081F424607DF93FA
:106B70000000F2271F424607FF9006000000EC27A6
:106B80001F424607FF9081000000E6271F4246078C
:106B9000FF9086000000E0271F424607FF93000099
:106BA0000520C2932F080220D2432F08B290CD07B0
:106BB0004607BC2BB24094074607BA3FB240940741
:106BC00046079292480746071324B2902E084E07B4
:106BD0000F2C1F4246071E424E07EE4F00009253F5
:106BE0004E07B290CD074607E92792534607E93F83
:106BF000B24008084E071F424E07EF9300000320E3
:106C0000A2534E07033CB25006004E071F424E07E8
:106C1000FF90FE0000000520A2534E07D243340827
:106C2000043C92534E07C24334081F424E07E24FC2
:106C300039081F424E076F4F4F4F825F4E079253E6
:106C40004E07B2902E084E07B02C1E424E073E80D3
:106C500008085E53C24E32085D4232087D533C4004
:106C60000808B0127E901F424E07CF9C00009D2066
:106C7000B24008084E071F424E07EF930000102055
:106C800092534E071F424E076E4F4E4E3EF00F007E
:106C90005F4235084F4F0E9F8820B0125C11853C33
:106CA00092534E07C2433A08C2433B081F424E0765
:106CB0006E4F4E4E3EF03F005F423A084F4F5F4FDF
:106CC00028024F4F0E9F0220D2533B08D2533A085E
:106CD00092534E070F3C1E424E075F423A084F4FF9
:106CE000DE9F280200000220D2533B08D2533A080C
:106CF00092534E07F29005003A08ED2BF2900500F2
:106D00003B080320B0125C11503CB250FBFF4E0711
:106D1000C2433A08C2433B081F424E07FFB03F0040
:106D200000000220D2533B08D2533A0892534E0738
:106D30000B3C1F424E07CF9300000220D2533B086A
:106D4000D2533A0892534E07F29005003A08F12BBD
:106D5000F29005003B0829201F424E07FF900B00D0
:106D600000002320A2534E07B24000F65407C2434E
:106D70003A08C2433B080F3C1F424E071E425407CD
:106D8000EF9E00000220D2533B08D2533A089253A0
:106D90004E0792535407F29006003A08ED2BF290FA
:106DA00006003B080220B0125C11924248074607D9
:106DB000C24330083041B240805A200132C20343FE
:106DC000B24000EC3002B24002A52801B24000A55A
:106DD0002C011F423002CF43000092B32C01FD2F43
:106DE000B24040A528011F423002DF429007000058
:106DF00092533002B2B22C01FD2B1F423002DF420F
:106E00006E07000092533002B2B22C01FD2B1F42DC
:106E10003002DF421602000092533002B2B22C015F
:106E2000FD2B1F423002DF42640700009253300204
:106E3000B2B22C01FD2B1F423002DF4235080000A8
:106E400092533002B2B22C01FD2B1F423002DF42BE
:106E50002D02000092533002B2B22C01FD2B1F42D2
:106E60003002DF428007000092533002B2B22C01A0
:106E7000FD2B1F423002DF42190200009253300204
:106E8000B2B22C01FD2BB24006022E02E24259079B
:106E90000F3C1F422E021E423002EE4F0000925362
:106EA000300292532E02B2B22C01FD2BF25359073D
:106EB000C2935907EE23B2408E062E02E2425907D2
:106EC0000F3C1F422E021E423002EE4F0000925332
:106ED000300292532E02B2B22C01FD2BF25359070D
:106EE000C2935907EE23B2400E022E02E242590726
:106EF0000F3C1F422E021E423002EE4F0000925302
:106F0000300292532E02B2B22C01FD2BF2535907DC
:106F1000C2935907EE23B240A6062E02E242590759
:106F20000F3C1F422E021E423002EE4F00009253D1
:106F3000300292532E02B2B22C01FD2BF2535907AC
:106F4000C2935907EE23B24002022E02E2425907D1
:106F50000F3C1F422E021E423002EE4F00009253A1
:106F6000300292532E02B2B22C01FD2BF25359077C
:106F7000C2935907EE23B24000022E02E2435907A2
:106F80000F3C1F422E021E423002EE4F0000925371
:106F9000300292532E02B2B22C01FD2BF25359074C
:106FA000C2935907EE23B2401EEC30021F4230025A
:106FB000DF4272070000B2B22C01FD2BB24020105C
:106FC00030021F423002DF4293070000B2B22C01B0
:106FD000FD2BB2407DEC30021F423002CF43000057
:106FE000B2B22C01FD2B92533002B24000EC2E02C3
:106FF0007D407E001C422E02B012C28D1F42300224
:10700000DF427E07000092533002B2B22C01FD2B0A
:107010001F423002DF427F070000B2B22C01FD2B7D
:10702000B24000A5280192B32C01FD2FB24010A55B
:107030002C01B2400C5A200132D2304132C20343FB
:10704000F2433100B24000103002B24002A52801E4
:10705000B24000A52C011F423002CF43000092B382
:107060002C01FD2FB24040A528011F423002DF4213
:107070009007000092533002B2B22C01FD2B1F4248
:107080003002DF426E07000092533002B2B22C0190
:10709000FD2B1F423002DF421602000092533002E5
:1070A000B2B22C01FD2B1F423002DF426407000008
:1070B00092533002B2B22C01FD2B1F423002DF424C
:1070C0003508000092533002B2B22C01FD2B1F4252
:1070D0003002DF422D02000092533002B2B22C0186
:1070E000FD2B1F423002DF42800700009253300226
:1070F000B2B22C01FD2B1F423002DF421902000008
:1071000092533002B2B22C01FD2BB24006022E0285
:10711000E24259070F3C1F422E021E423002EE4F40
:1071200000009253300292532E02B2B22C01FD2B7A
:10713000F2535907C2935907EE23B2408E062E022E
:10714000E24259070F3C1F422E021E423002EE4F10
:1071500000009253300292532E02B2B22C01FD2B4A
:10716000F2535907C2935907EE23B2400E022E0282
:10717000E24259070F3C1F422E021E423002EE4FE0
:1071800000009253300292532E02B2B22C01FD2B1A
:10719000F2535907C2935907EE23B240A6062E02B6
:1071A000E24259070F3C1F422E021E423002EE4FB0
:1071B00000009253300292532E02B2B22C01FD2BEA
:1071C000F2535907C2935907EE23B24002022E022E
:1071D000E24259070F3C1F422E021E423002EE4F80
:1071E00000009253300292532E02B2B22C01FD2BBA
:1071F000F2535907C2935907EE23B24000022E0200
:10720000E24359070F3C1F422E021E423002EE4F4E
:1072100000009253300292532E02B2B22C01FD2B89
:10722000F2535907C2935907EE23B2401E103002A1
:107230001F423002DF4272070000B2B22C01FD2B68
:10724000B240201030021F423002DF42930700009C
:10725000B2B22C01FD2BB2407D1030021F42300231
:10726000CF430000B2B22C01FD2B92533002B2404A
:1072700000102E027D407E001C422E02B012C28DF4
:107280001F423002DF427E07000092533002B2B24A
:107290002C01FD2B1F423002DF427F070000B2B2FB
:1072A0002C01FD2BB24000A5280192B32C01FD2F2B
:1072B000B24010A52C0132D230410E433F40204154
:1072C0001C4246021D424802B012A27B0E4C0F4DDA
:1072D0000C4E0D4FB0123491C24C5C07C2935C0748
:1072E00007245C425C07B012F886C24C8A07023C55
:1072F000C2438A075C425C074C4C0C5C0F4C0C5C34
:107300000C5C0C5F0D4C0D5D0D7D3DE3B0128C8768
:107310000E4C0F4D1C4246021D424802B012D87757
:10732000824C4602824D48020E433F40803F1C4241
:1073300046021D424802B012A27B0E4C0F4D0C4E6D
:107340000D4FB0123491C24C5C075C425C07B01226
:10735000F8867CD08000C24C8B075C425C074C4CAA
:107360000D43B012A0870E4C0F4D1C4246021D4229
:107370004802B012D877824C4602824D48020E4332
:107380003F4020411C4246021D424802B0123C7957
:10739000824C4602824D48020E433F40803F1C42D1
:1073A00046021D424802B012A27B0E4C0F4D0C4EFD
:1073B0000D4FB0123491C24C5C075C425C07B012B6
:1073C000F886C24C8C075C425C074C4C0D43B012F3
:1073D000A0870E4C0F4D1C4246021D424802B012BF
:1073E000D877824C4602824D48020E433F402041EE
:1073F0001C4246021D424802B0123C79824C4602B1
:10740000824D48020E433F40803F1C4246021D42CF
:107410004802B012A27B0E4C0F4D0C4E0D4FB01215
:107420003491C24C5C075C425C07B012F886C24CD7
:107430008D075C425C074C4C0D43B012A0870E4C8C
:107440000F4D1C4246021D424802B012D877824CB2
:107450004602824D48020E433F4020411C424602F4
:107460001D424802B0123C79824C4602824D4802CD
:107470000E433F40803F1C4246021D424802B0126C
:10748000A27B0E4C0F4D0C4E0D4FB0123491C24CDE
:107490005C075C425C07B012F886C24C8E075C4207
:1074A0005C074C4C0D43B012A0870E4C0F4D1C4294
:1074B00046021D424802B012D877824C4602824DE5
:1074C0004802C2438F0730410A120B120A4C0B4D7F
:1074D0007E80050038246E8382245E8393246E832D
:1074E00058245E839F245E8309247E80A400642444
:1074F0007E803D0015246E833924A53C0E433F4019
:10750000803F1C4242071D424407B0123C790E4C9A
:107510000F4D0C4A0D4BB012A27B0A4C0B4D933C05
:107520003E406F123F40833A1C4242071D424407CF
:10753000B0123C790E4C0F4D0C4A0D4BB012A27B91
:107540000A4C0B4D803C3E40EA043F40F0401C4258
:1075500042071D424407B0123C790E4C0F4D0C4AB5
:107560000D4BB012A27B0A4C0B4D6D3C3E40AAF174
:107570003F40CB421C4242071D424407B0123C79B7
:107580000E4C0F4D0C4A0D4BB012A27B0A4C0B4D0A
:107590005A3C3E4028123F40273C1C4242071D42B5
:1075A0004407B0123C790E4C0F4D0C4A0D4BB012F3
:1075B000A27B0A4C0B4D473C3E40AAF13F40CB42D8
:1075C0001C4242071D424407B0123C790E4C0F4D3D
:1075D0000C4A0D4BB012A27B0A4C0B4D343C3E4082
:1075E0000AD73F40233C1C4242071D424407B012C9
:1075F0003C790E4C0F4D0C4A0D4BB012A27B0A4C3D
:107600000B4D213C1E4242071F4244070C4A0D4BC2
:10761000B0123C790E433F402041B0123C790A4CF5
:107620000B4D113C0E433F407A441C4242071D4221
:107630004407B0123C790E4C0F4D0C4A0D4BB01262
:10764000A27B0A4C0B4D0C4A0D4B3B413A41304159
:10765000F2901000730756205C4275074C4C0C5C8E
:107660000C5C0F4C0C5C0C5C0C5C0F5C0C5C0C5FE1
:10767000021232C20343D24274073001B240E8031F
:1076800038011C523A0132415F4276074F4F0F5F7B
:107690000E4F0F5F0F5F0F5E0C5F5F4277074F4F1C
:1076A0000C5F0D4C0D5D0D7D3DE3E29378070720E7
:1076B000B012A0870E433F407AC43040A27BF290C4
:1076C000030078070720B012A0870E433F40C8C2CE
:1076D0003040A27BE29278070720B012A0870E43C9
:1076E0003F4020C13040A27BF29005007807072080
:1076F000B012A0870E433F4080BF3040A27B0C43B6
:107700000D4330415C4275074C4C0C5C0C5C0F4CDB
:107710000C5C0C5C0C5C0F5C0C5C0C5F021232C2EB
:107720000343D24274073001B240E80338011C52CF
:107730003A0132415F4276074F4F0F5F0E4F0F5FA6
:107740000F5F0F5E0C5F5F4277074F4F0C5F0D4C72
:107750000D5D0D7D3DE35E427307043C3C501027F8
:107760000D637E534E93FA23D29378070820B0120C
:10777000A0873E4000403F401C463040A27BE29341
:1077800078070720B012A0870E433F407A4430406C
:10779000A27BF290030078070720B012A0870E4367
:1077A0003F40C8423040A27BE29278070720B012E7
:1077B000A0870E433F4020413040A27BF29005005D
:1077C00078070720B012A0870E433F40803F30402B
:1077D000A27B0C430D4330413FE000800612064D72
:1077E0000656369001FFA82C064F0656369001FF2C
:1077F0000E2C064D0656369000FF0B20064F0656FF
:10780000369000FF9920064D06EF065695283D4319
:10781000933C064F0656369000FF07243FB0FF7F8B
:107820000720064D0656882087280C4E0D4F843CB5
:107830003DB0FF7FFA27091208120712064D074FC5
:10784000065607570796092802200E9C06280FEDBA
:107850000DEF0FED0EEC0CEE0EEC064F065609691F
:1078600086107FD08000084D08580969881078F389
:107870007DD080000743468816247690F1FF0E2CB9
:107880007690E7FF4728074E0E4F0F4376501000C3
:107890000A2437B0FF01022437D000020F110E1066
:1078A00007105653FB230649061106E916B32F2489
:1078B00037E317530C7E4D7F10200C93072007935E
:1078C000382487104D4738801800063C8C104D4CEA
:1078D0000CED87100CD73882074307570C6C4D6DA1
:1078E000092C188307570C6C4D6D042C18830C5C05
:1078F0004D6DFC2B189311340D43053C5853789370
:107900000C203D4000FF0C4309100D10123C0C5E92
:107910004D6FF42F07570C6C4D6D88100DD8091062
:107920000D100C100628079302201CB302241C53D0
:107930000D63374138413941364130410612064D19
:107940000656369001FF932C064F0656369001FFDF
:107950000E2C064F36F000800DE6064D065636908A
:1079600000FF0820064F065682203D43803C0D4F05
:107970000C4E7D3C064F0656369000FF3640FF7F8A
:1079800007200DB6F2270DC63DD0807F0C436F3C1B
:107990000DB66D240FB602200DC6F83F0812084D33
:1079A0000858881078F3064F0656861076F3085666
:1079B000064D38807E003E30021232C203433DD075
:1079C00080003FD08000824E3001824C3801824ED0
:1079D00034011E423A0192423C013A0182433C0189
:1079E000C24D3801824C3401C24F3801C24F3401BC
:1079F0001F423A0192423C013A01C24D38011C42F9
:107A00003A01324103430E5E0F6F0C6C042C0E5E84
:107A10000F6F0C6C18833890FF000E3408931220FF
:107A20003C9308203FF000FE3F9000FE03203D40C5
:107A30000001043C0D43023C3D4000FF06560D1082
:107A40000C43143CF7334D484DEC0DEC8D104CEFCE
:107A50000CEF8C1006560D100C1008284F930420C4
:107A60000E9302201CB302241C530D63384136418F
:107A700030413C400110B0122891C24C6E073C408E
:107A80000210B0122891C24C16023C400310B012F2
:107A90002891C24C64073C400410B0122891C24C9B
:107AA00035083C400510B0122891C24C2D023C40D4
:107AB0000610B0122891C24C80073C400710B0124B
:107AC0002891C24C19023C401E10B0122891C24CA1
:107AD00072073C402010B0122891C24C9307B2406C
:107AE00006022E023D4008101C422E02B012C08E2B
:107AF000B2408E062E023D400C101C422E02B012E7
:107B0000C08EB2400E022E023D4010101C422E02CA
:107B1000B012C08EB240A6062E023D4014101C4288
:107B20002E02B012C08EB24002022E023D4018104A
:107B30001C422E02B012C08EB24000022E023C4007
:107B40001C10B01228911F422E02CF4C00009253FD
:107B50002E023C401D10B01228911F422E02CF4C25
:107B60000000B2402A022E023C4000F0B0122891E0
:107B70001F422E02CF4C000092532E023C4001F0D7
:107B8000B01228911F422E02CF4C000092532E02B9
:107B90003C4002F0B01228911F422E02CF4C000050
:107BA00030410612064D0656369001FF902C064FC6
:107BB0000656369001FF0A2C064F36F000800DE67F
:107BC0003DB0FF7F05203FB0FF7F81203D437F3CDC
:107BD0003FB0FF7F06200C433DF000803DD0807F0A
:107BE000763C064F0656369000FF0920064D065695
:107BF000369000FFEB273DC0FF7F0C43683C064DED
:107C00000656369000FF63240A120B1208120B4D21
:107C10000A4C0F5F0D5D084F0F108D1088107DF31B
:107C200078F338807F000D882630084D3FD08000E3
:107C30007BD080001C430D430A8E4B7F2C2C188375
:107C40001A300A5A4B6B0A5E4B6F0A5A4B6B252847
:107C50000A8E4B7F12D30C6C4D6DF72B3890FF00C2
:107C600003383D4000FF083C089327201CD33C9379
:107C700002207D9322240D430C430F6F0D10243CF2
:107C80000C6C4D6D08280A93E9234B93E7232CB322
:107C9000E5231CC3E33F0A5A4B6B04300C6C4D6D5B
:107CA000FA2BDC3F0A8E4B7FEB2F0C6C4D6DD62FE1
:107CB0000A5A4B6B0A5E4B6FCD3F88100DD80F6F81
:107CC0000D100C100C630D6338413B413A413641B5
:107CD00030410E12D2535A07F29032005A07212037
:107CE000C2435A07D2535807D2536807D2535F078B
:107CF000F29003005F070420D2431302C2435F07E0
:107D0000E29358070220D2D31702F2900A005807D4
:107D10000820C2431A02C2435807D2431202D2C3F8
:107D20001702D2931B021D20C293600709205E42F6
:107D30001C007EF0A500C24E1402D24360070F3C27
:107D40005E421C007EF0A500C24E1502D2921502C2
:107D500014020320D24214026107C2436007F243B7
:107D60001E00F2433100C29317020720D2936B0723
:107D70003020D29279071B022C24D2931B020520BB
:107D8000D2428A071D00D2C33100E2931B020520B4
:107D9000D2428B071D00E2C23100F29003001B02A9
:107DA0000620D2428C071D00F2C010003100E29282
:107DB0001B020620D2428D071D00F2C020003100B8
:107DC000F29005001B020520D2428E071D00E2C37F
:107DD0003100F29006001B020820D2428F071D00DE
:107DE000F2405A001E00F2C23100D2531B02F29040
:107DF00007001B020228D2431B023E410013C2931C
:107E000087070820D2438707C2436807D243620727
:107E1000C2431702C29384070A24F2900B0068073A
:107E20000628C2438407C2438707C2435E07C29342
:107E300062070424F290060068075A285E42610730
:107E40007E8025004C247E807F005220C2936207F2
:107E50004124C2436807C29328002E341E423A02CE
:107E60001F423C021C42A6061D42A806B012DC7747
:107E70004E43B012A0884C9315201E423A021F4276
:107E80003C021C42A6061D42A806B012DC77824CBA
:107E9000A606824DA806D2439307B0123C70C24397
:107EA0008707123CD2438407F24003008507D24380
:107EB0005E07B0120E5D083CD2438407F24285078C
:107EC000D2435E07B0120E5DF2D080001702D2439B
:107ED00062070E3CD2436207C2436807093CC243B3
:107EE0008707C2436807D2436207F2D080001702B7
:107EF000F290FA0068070528C2438707F2D0800095
:107F0000170230415E4216027E80050025246E83F2
:107F100053245E835D246E8337245E8364245E83F2
:107F200009247E80A4003C247E803D0009246E83C9
:107F30001F2430411E4242071F42440730403C7913
:107F40001E4242071F424407B0123C793E406F1266
:107F50003F40833A30403C791E4242071F4244076B
:107F6000B0123C793E40EA043F40F04030403C795A
:107F70001E4242071F424407B0123C793E40AAF11C
:107F80003F40CB4230403C791E4242071F424407EB
:107F9000B0123C793E4028123F40273C30403C79AB
:107FA0001E4242071F424407B0123C793E40AAF1EC
:107FB0003F40CB4230403C791E4242071F424407BB
:107FC000B0123C793E400AD73F40233C30403C79D8
:107FD0001E4242071F424407B0123C790E433F4005
:107FE000204130403C791E4242071F424407B012F4
:107FF0003C790E433F407A4430403C793C4001ECB0
:10800000B0122891C24C6E073C4002ECB01228918D
:10801000C24C16023C4003ECB0122891C24C6407DB
:108020003C4004ECB0122891C24C35083C4005ECB1
:10803000B0122891C24C2D023C4006ECB01228919F
:10804000C24C80073C4007ECB0122891C24C190288
:108050003C401EECB0122891C24C72073C402010EC
:10806000B0122891C24C9307B24006022E023D4046
:1080700008EC1C422E02B012C08EB2408E062E02B8
:108080003D400CEC1C422E02B012C08EB2400E02DB
:108090002E023D4010EC1C422E02B012C08EB240A7
:1080A000A6062E023D4014EC1C422E02B012C08ED9
:1080B000B24002022E023D4018EC1C422E02B012C9
:1080C000C08EB24000022E023C401CECB01228913F
:1080D0001F422E02CF4C000092532E023C401DEC5A
:1080E000B01228911F422E02CF4C000030410A12DC
:1080F0000B1208120912061207120D120C1221831C
:108100000E433F408000B0124A910C9312240E435C
:108110000F43B0125491B0121C910C9303240C43E2
:108120000D43553CB240210056073C433D407F7F04
:108130004E3C0E41B0125491B0120A8E0A4C0B4DB7
:108140003E40C5033F40423FB012DC773E401A51EB
:108150003F40123FB0123C79064C074D0E4C0F4D7C
:108160000C4A0D4BB012A27B0E460F47B012DC77C3
:108170000A4C0B4D264116B30B243E40F3043F40FE
:10818000B53FB0123C790A4C0B4D6C417C53013C1D
:108190004C466E43B012648F7CF38C100B5B021262
:1081A0000B5C324103430B100E4A0F4BB01254913B
:1081B000B012A27B084C094D0E433F40803E0C4A52
:1081C0000D4BB0123C790E480F49B012DC7731509C
:1081D000060030400291218332C20343F243310052
:1081E000B24000F83002B24002A52801B24000A51A
:1081F0002C011F423002CF43000092B32C01FD2F0F
:10820000B24040A528011F423002EF4C0000B2B23C
:108210002C01FD2B2C5292533002C1430000093C2B
:108220001F423002EF4C00003C5392533002D153B6
:108230000000E1920000F42B3C52C1430000093CD5
:108240001F423002EF4C00003C5392533002D15396
:108250000000E1920000F42B3C52C1430000093CB5
:108260001F423002EF4C00003C5392533002D15376
:108270000000E1920000F42B3F401F02C1430000C8
:108280000C3C1E423002EE4F00001F53925330024E
:10829000B2B22C01FD2BD1530000F190060000007A
:1082A000F02BB24000A5280192B32C01FD2FB24063
:1082B00010A52C0132D221533041C29319026C24F3
:1082C000C2937B070820D2437B07C2436807D2438F
:1082D0007C07C2431702C29384070A24F2900B0062
:1082E00068070628C2438407C2437B07C2435E0770
:1082F000C2937C075120F2900B0068074D28F2B022
:1083000040001800402CC2436807C29328002E3456
:108310001E423A021F423C021C42A6061D42A8060B
:10832000B012DC774E43B012A0884C9315201E4249
:108330003A021F423C021C42A6061D42A806B01289
:10834000DC77824CA606824DA806D2439307B01272
:108350003C70C2437B07123CD2438407F2400300C7
:108360008507D2435E07B0120E5D083CD2438407F6
:10837000F2428507D2435E07B0120E5DF2D0800054
:108380001702D2437C07F290FA0068070528C2431F
:108390007B07F2D08000170230410A120B123180A5
:1083A00006000E433F4060401C423E071D4240070E
:1083B000B0124A910C93052482433E07B2406040BC
:1083C00040071E433F40B8411C423E071D42400744
:1083D000B01240910C93052482433E07B240B8414D
:1083E00040070E433F4080C01C423E071D424007ED
:1083F000B012DC771E4202021F420402B012A27BBE
:108400001A4200020B43B012988F0A5C0B6D814A2E
:108410000200814B0400F2F0CF002900C1430000AC
:10842000163CF2C2290091B304000228F2D22900BE
:10843000915102000200916104000400F2D010008A
:1084400029000343F2C010002900D1530000F1902D
:1084500011000000E62BF2D0200029000343315028
:1084600006003B413A41304132C20343F2433100FE
:10847000B24000FC3002B24002A52801B24000A583
:108480002C011F423002CF43000092B32C01FD2F7C
:10849000B24040A52801B2400A022E02E24259072A
:1084A0000F3C1F422E021E423002EE4F000092533C
:1084B000300292532E02B2B22C01FD2BF253590717
:1084C000C2935907EE23B240AE062E02E24259078C
:1084D0000F3C1F422E021E423002EE4F000092530C
:1084E000300292532E02B2B22C01FD2BF2535907E7
:1084F000C2935907EE231F423002CF430000B2B2AD
:108500002C01FD2BB24000A5280192B32C01FD2FB8
:10851000B24010A52C0132D2D243930730403C70B8
:108520000F12D292310826022428F2903A00320823
:108530000A201F424807DF42760000008243900174
:10854000C24331083D3CD25332081F424807DF4244
:1085500076000000B290CD0748070420B24094078F
:108560004807023C9253480782439001C2433108B6
:10857000273CD292310827020C281F424807DF42CD
:108580007600000082439001C2433108D243330891
:10859000173CD2433208C24333081F424807DF4228
:1085A00076000000B290CD0748070420B24094073F
:1085B0004807023C9253480782439001C243310866
:1085C0003F41001321820C433D40803FB012047FA5
:1085D000814C0000814D02003E4000503F40C347A7
:1085E0002C411D410200B01240910C9303247C40A9
:1085F0000600343C3E4000403F401C462C411D419B
:108600000200B01240910C9303247C400500263CEC
:108610000E433F407A442C411D410200B01240916C
:108620000C9302246C421A3C0E433F40C8422C413A
:108630001D410200B01240910C9303247C400300C2
:108640000D3C0E433F4020412C411D410200B01221
:1086500040910C9302246C43013C5C432152304115
:108660000A120B120812091206122182084C094D37
:10867000464E46460C460D43B012A0870A4C0B4DA1
:108680000E433F4020410C480D49B0123C790E4A40
:108690000F4BB0123C790E433F40003FB012DC77E5
:1086A000084C094D0C480D49B012988F814C0000C0
:1086B000814D0200464606560F4606560656065F90
:1086C0000C460D4C0D5D0D7D3DE3B0128C870A4CC0
:1086D0000B4D2C411D410200B0128C870E4A0F4BEE
:1086E000B012A27B814C0000814D02002C411D4143
:1086F00002002152304004918C113C901000432C18
:108700000C5C104C068726872C87328738873E877B
:1087100044874A87508756875C87628768876E8759
:1087200074877A8780877C403F0030417C402800F6
:1087300030417C404F0030417C406B0030417C40F8
:10874000780030417C40730030417C4077003041FC
:108750007C402A0030417C407F0030417C407B00DF
:1087600030417C407E0030417C40750030417C408F
:10877000170030417C406D0030417C405700304153
:108780007C40560030417C40400030410D9308341D
:1087900008123CE33DE31C530D6338409701033C52
:1087A0000812384097003D9000011C2C0D930F20BB
:1087B0003C90000106288C104D4C3CC0FF003882D4
:1087C000063C0C930D240D4C0C433880100018838C
:1087D0000C5C4D6DFC2B08114D100C1088100DD841
:1087E00038413041071247433D900002082812C328
:1087F0000D100C10471018533D900002F82F08116F
:108800004D100C1088100DD84767062812C347106A
:10881000012002281C530D63374138413041C243C7
:108820003808F290090083070824F29006008307B5
:108830000424F290050083070620F2D08000380857
:10884000F2D010003808C29393070324F2D04000FE
:108850003808C29325020524F2D020003808C2430C
:108860002502C29318020220F2D23808C29392075E
:108870000E24F290090083070A24F2900600830771
:108880000624F290050083070224E2D23808D2932E
:1088900083070324E29383070220D2D338083041B0
:1088A0000A120B1208120A4C0B4D484E3E40CECC19
:1088B0003F404C3D0C4A0D4BB0124A910C932C2476
:1088C0003E40CDCC3F404CBD0C4A0D4BB0124091C8
:1088D0000C93202448931C203F400DF8DF930000A8
:1088E00015207E400C000C433D40A042B012C874DD
:1088F0000E4C0F4D1C423A021D423C02B0124A91EE
:108900000C9302244C43093C5C43073C4C43053C1C
:108910004C43033C6C43013C5C4330400891218351
:1089200032C20343F2433100B24080103002B24001
:10893000BE062E02B24002A52801B24000A52C01BD
:108940001F423002CF43000092B32C01FD2FB240F2
:1089500040A52801C14300000F3C1F422E021E42C9
:108960003002EE4F000092532E0292533002B2B208
:108970002C01FD2BD1530000F19060000000ED2B85
:10898000B24000A5280192B32C01FD2FB24010A5E2
:108990002C0132D221533041218332C20343F243AE
:1089A0003100B24000FA3002B24002A52801B240C4
:1089B00000A52C011F423002CF43000092B32C01CE
:1089C000FD2FB24040A52801C14300000C3C1F42CE
:1089D0003002EF4C00001C5392533002B2B22C0113
:1089E000FD2BD1530000F19003000000F02BB240AA
:1089F00000A5280192B32C01FD2FB24010A52C0137
:108A000032D2D2439307B0123C70215330412183BC
:108A100032C20343F2433100B24000F43002B240AC
:108A200002A52801B24000A52C011F423002CF430D
:108A3000000092B32C01FD2FB24040A52801C14394
:108A400000000C3C1F423002EF4C00001C539253BC
:108A50003002B2B22C01FD2BD1530000F19018006E
:108A60000000F02BB24000A5280192B32C01FD2F8D
:108A7000B24010A52C0132D2D2439307B0123C7001
:108A800021533041218332C20343F2433100B240CB
:108A900000F63002B24002A52801B24000A52C0128
:108AA0001F423002CF43000092B32C01FD2FB24091
:108AB00040A52801C14300000C3C1F423002EF4C8E
:108AC00000001C5392533002B2B22C01FD2BD15343
:108AD0000000F19015000000F02BB24000A5280125
:108AE00092B32C01FD2FB24010A52C0132D2D243FB
:108AF0009307B0123C7021533041218332C20343AB
:108B0000F2433100B24000F03002B24002A5280129
:108B1000B24000A52C011F423002CF43000092B3A7
:108B20002C01FD2FB24040A52801C14300000C3CA0
:108B30001F423002EF4C00001C5392533002B2B27D
:108B40002C01FD2BD1530000F19003000000F02B0D
:108B5000B24000A5280192B32C01FD2FB24010A510
:108B60002C0132D221533041218332C20343F243DC
:108B70003100B24000F23002B24002A52801B240FA
:108B800000A52C011F423002CF43000092B32C01FC
:108B9000FD2FB24040A52801C14300000C3C1F42FC
:108BA0003002EF4C00001C5392533002B2B22C0141
:108BB000FD2BD1530000F19003000000F02BB240D8
:108BC00000A5280192B32C01FD2FB24010A52C0165
:108BD00032D2215330410612064D0656369001FF1F
:108BE000052C064F0656369001FF022812C31C3C86
:108BF0003DB0FF7F1524064F065603200DFDF633CA
:108C0000123C07280DFD0F340F9D0E200E9C0C20EA
:108C10000A3C0DFDEB330D9F07200C9E0520033C05
:108C2000064F0656012012D336413041B2500300A0
:108C300054071F4254071E424A07EE4F000092534A
:108C40004A07B25354071F4254071E424A07EE4FC9
:108C5000000092534A07B25354071F4254071E4262
:108C60004A07EE4F000092534A07B25354071F427F
:108C700054071E424A07EE4F000092534A07304104
:108C8000318006008143020081430400C14300009B
:108C9000153CE2C221000343E2D2210091510200BF
:108CA0000200916104000400F2B0100020000428CA
:108CB0009153020081630400D1530000F190180029
:108CC0000000E72B1C4102001D410400315006004A
:108CD0003041F2D030001B00F2D0C0000400F2D0CE
:108CE00090007000F2D010007100F240800074001B
:108CF000D2437500C2437300D2C37000F2D0C000EB
:108D00000000B24094074807924248074607B24025
:108D1000CE074C0792424C074A07E2D31900C243E0
:108D20002E0830410612064D0656369001FF202CC3
:108D3000064F0656369001FF1B2C3FB0FF7F1524CF
:108D4000064D065603200FFF1330133C07280FFF74
:108D500010340D9F0E200C9E0B240B3C0FFF08308F
:108D60000F9D07200E9C0424043C064D065601204E
:108D700012C33641304106120712064D7DD08000E5
:108D800006660767861076F376807F00032C0C4317
:108D90000D43133C76801800072C76E30E240D114A
:108DA0000C105683FC23093C369203383C433D4368
:108DB000043C0C5C0D6D5683FC2F07103741364187
:108DC00030410A123A434E4D4D4E7D534E9314247A
:108DD0006F4C4F4F0AEF1C534F437F92F42F0E12EC
:108DE000C14A00003E415EF312C30A104E930224B2
:108DF0003AE001A05F53F13FC24A7E078A103AF081
:108E0000FF00C24A7F073A4130410A120B12081292
:108E10000A4C0B4D084E0E430F43B0121C910C939D
:108E20000524884300000C430D430E3C0F4B0F5F9D
:108E30008F107F807E008F11884F00003BC0807FA5
:108E40003BD0003F0C4A0D4B304008910F129292DC
:108E50004C074A070B24B29007084C07072C925383
:108E60004C071F424C07E24F77000C3CD2C32E0840
:108E7000B240CE074C07E2D31900C2933C0802244B
:108E8000B24220013F4100130B120A1209120A4399
:108E90000B43394020000C5C0D6D0A6A0B6B0A8E87
:108EA0000B7F04281CD33953F623043C0A5E0B6F56
:108EB0003953F1230E4A0F4B39413A413B4130417E
:108EC000824D30021F423002EC4F00001C5392537F
:108ED00030021F423002EC4F00001C53925330020C
:108EE0001F423002EC4F00001C53925330021F42CD
:108EF0003002EC4F000030412183B240BE062E020A
:108F0000B24080103002C14300000C3C1F423002CE
:108F10001E422E02EE4F00009253300292532E0258
:108F2000D1530000F19060000000F02B215330413C
:108F30002183C14300000F3CF2C221000343E2C27F
:108F400021004C930234F2D221004C5C0343E2D264
:108F50002100D1530000F1920000EE2BF2C221005B
:108F6000215330418C118E11091209430E930334A1
:108F70003EE31E5319D30C9303343CE31C5339E3F3
:108F8000B012C29019B302243CE31C5329B302244B
:108F90003EE31E5339413041B012768D0F283D908B
:108FA000008006200C9309243D4000800C43304192
:108FB000FB2F3CE33DE31C530D6330413DB000808B
:108FC000FC273D40FF7F3C433041B240CE07540771
:108FD0005F422D024F4F825F54074E43053C1F42B4
:108FE00054076EEF9253540792924A075407F7239F
:108FF0001F424A07CF4E000030410612064D06566A
:10900000369001FF052C064F0656369001FF0228C8
:1090100022C3093C3DB0FF7F03203FB0FF7F033CEC
:109020000F9D01200E9C36413041C293350813201C
:10903000C2431802C2937207062482433E07B2401D
:10904000B4414007063CB24033333E07B240734060
:109050004007B0129A833041E2B328000628B2409C
:1090600010006201E2432C00073CF2433100C2438E
:109070002C00B2C010006201C2432B0000134F430A
:10908000023C3C4094074E4D4D4E7D534E9306247A
:109090006FEC3C90CD07F5271C53F53F4C4F30410A
:1090A000D2533108D292270231080220D24330082D
:1090B000F29331080320F240FE00310800137CF3E4
:1090C0007EF30F4E0D4C0E431C430D5D0E6E0E9F36
:1090D00001280E8F0C6CF92B30410A120A4C033C0C
:1090E000FA4D00001A530F4E3E530F93F9233A41A5
:1090F00030410D5C033CCC4300001C530C9DFB2312
:10910000304137413641394138413B413A413041A4
:10911000B012FA8F0C4301241C533041B012FA8F65
:109120000C4301201C533041824C30021F4230025C
:109130006C4F3041B012768D02280C430D43304104
:10914000B012D68B0C430C633041B012248D0C430B
:109150000C6330411C4104001D4106003041E2E235
:10916000290000133040DA9030407091304068910F
:02917000FF3FBF
:02FFE200589035
:02FFEC00D27CC5
:06FFF0004C8E20855E919D
:02FFFA00A090D5
:02FFFE003411BC
:0400000300001134B4
:00000001FF
